:020000040800F2
:10000000005000204D180008FB170008FD170008DD
:10001000FF1700080118000803180008000000007E
:1000200000000000000000000000000005180008AB
:100030000718000800000000091800080B18000845
:1000400095180008951800089518000895180008DC
:1000500095180008951800089518000895180008CC
:1000600095180008951800089518000895180008BC
:1000700095180008951800089518000895180008AC
:10008000951800089518000895180008951800089C
:10009000951800089518000895180008951800088C
:1000A000951800089518000895180008951800087C
:1000B000951800089518000895180008951800086C
:1000C000951800089518000895180008951800085C
:1000D00095180008151800089518000895180008CC
:1000E00095180008951800089518000800000000F1
:1000F0000000000000000000000000000000000000
:0C01000000000000000000005FF808F1A3
:10010C0000F1340191E838009C46A6464CF8045D99
:10011C0090E8FF0FE54600BD90EC210B704700BF47
:10012C0080EC210B704700BF90EC200B704700BF98
:10013C0080EC200B704700BFD0EC200B704700BF49
:10014C00C0EC200B704700BFF0EC0201F0EC021188
:10015C00F0EC0221F0EC0231F0EC0241F0EC025137
:10016C00F0EC0261F0EC0271F0EC0281F0EC029127
:10017C00F0EC02A1F0EC02B1F0EC02C1F0EC02D117
:10018C00F0EC02E1F0EC02F1704700BFE0EC020190
:10019C00E0EC0211E0EC0221E0EC0231E0EC024177
:1001AC00E0EC0251E0EC0261E0EC0271E0EC028167
:1001BC00E0EC0291E0EC02A1E0EC02B1E0EC02C157
:1001CC00E0EC02D1E0EC02E1E0EC02F1704700BFA0
:1001DC00B0FC0181B0FC0191B0FC01A1B0FC01B1FB
:1001EC00704700BFA0FC0181A0FC0191A0FC01A103
:1001FC00A0FC01B1704700BFEC4600B52DE90050E2
:10020C002DE9FF1F4FF000032DE90C0001A901F0AF
:10021C00C1FDDDF840E012B0704700BFEC4600B500
:10022C002DE900502DE9FF1F4FF000032DE90C00C4
:10023C0001A901F0EFFDDDF840E012B0704700BFFE
:10024C00EC4600B52DE900502DE9FF1F4FF00003DF
:10025C002DE90C0001A901F0FFFDDDF840E012B022
:10026C00704700BFEC4600B52DE900502DE9FF1F8B
:10027C004FF000032DE90C0001AB01F0BFFDDDF8E0
:10028C0040E012B0704700BFEC4600B52DE90050BD
:10029C002DE9FF1F4FF000032DE90C0001AA01F01E
:1002AC0031FEDDF840E012B0704700BF844641EAF1
:1002BC00000313F0030349D1403A23D30B680360C6
:1002CC004B6843608B688360CB68C3600B690361C8
:1002DC004B6943618B698361CB69C3610B6A0362B0
:1002EC004B6A43628B6A8362CB6AC3620B6B036398
:1002FC004B6B43638B6B8363CB6BC363403040317D
:10030C00403ADBD230320BD30B6803604B6843604E
:10031C008B688360CB68C36010301031103AF3D215
:10032C000C3205D351F8043B40F8043B043AF9D2A3
:10033C00043208D0D2071CBF11F8013B00F8013B76
:10034C0001D30B8803806046704700BF082A13D383
:10035C008B07B1D010F00303AED0C3F10403D21A53
:10036C00DB071CBF11F8013B00F8013BA4D331F8AB
:10037C00023B20F8023B9FE7043AD9D3013A11F82B
:10038C00013B00F8013BF9D20B7803704B784370BA
:10039C008B7883706046704710B5054C237833B961
:1003AC00044B13B10448AFF300800123237010BD3C
:1003BC0044040020000000009C28000808B5034BF2
:1003CC001BB103490348AFF3008008BD00000000D7
:1003DC00480400209C28000882B00E4B9A6942F019
:1003EC0001029A619A6902F001020092009ADA699C
:1003FC0042F08052DA61DB6903F080530193019B78
:10040C00054A536823F0E06343F00073536002B075
:10041C00704700BF001002400000014030B587B0AB
:10042C000023029303930493059302681B4B9A4297
:10043C0001D007B030BD03F558439A6942F48042AD
:10044C009A619A6902F480420092009A9A6942F089
:10045C0004029A619B6903F004030193019B4FF41E
:10046C000073029302230393032305930C4D02A9FB
:10047C00284600F06DFE4FF4806302930024039431
:10048C00049402A9284600F063FE2246214625204A
:10049C0000F0D6FF252001F00BF8CAE70038014028
:1004AC00000801400268D36823F49073D36002689B
:1004BC00536923F001035361202380F83A307047CD
:1004CC0090F83930DBB2212B01D0022070478368C1
:1004DC00B3F5805F17D0036A5A1C02621A7803685E
:1004EC005A60C38C9BB2013B9BB2C3844BB902686C
:1004FC00D36823F08003D3600268D36843F04003D1
:10050C00D360002070470369002BE4D1036A1B8879
:10051C000268C3F308035360036A02330362E0E723
:10052C0010B504460268136923F44053C1680B43A9
:10053C00136183680269134342691A430168CB68EB
:10054C0023F4B05323F00C031343CB6002685369BC
:10055C0023F4407381690B4353610268134B9A4235
:10056C0020D000F0D5FD024602EB820202EB8202A3
:10057C0063689B00B2FBF3F20D48A0FB0231490902
:10058C00642303FB11231B013233A0FB03235B0900
:10059C0003F0F00202EB011203F00F032168134485
:1005AC008B6010BD00F0C4FD0246DDE70038014051
:1005BC001F85EB512DE9F84305460F461646994623
:1005CC00DDF8208006E04FF0010C664527D1B8F12C
:1005DC00FF3F07D12C68246837EA0403F3D04FF0AF
:1005EC00000CF2E7B8F1000F05D000F067FAA0EBB1
:1005FC0009004045EED92A68D36823F4D073D36040
:10060C002A68536923F001035361202385F839309C
:10061C0085F83A30002385F83830032000E00020BC
:10062C00BDE8F88358B310B5044690F839300BB3D5
:10063C00242384F839302268D36823F40053D36020
:10064C002046FFF76DFF2268136923F49043136172
:10065C002268536923F02A0353612268D36843F458
:10066C000053D3600020E063202384F8393084F8F1
:10067C003A3010BD80F83830FFF7D0FED8E70120B3
:10068C0070472DE9F04182B01E4690F83930DBB24C
:10069C00202B54D104460D469046002953D0002AF5
:1006AC0053D090F83830012B51D0012380F83830DA
:1006BC000023C363212380F8393000F0FFF907468B
:1006CC00A4F82480A4F82680A368B3F5805F05D035
:1006DC004FF00008002384F8383012E0236913B17E
:1006EC004FF00008F6E7A8460025F3E738F8023B80
:1006FC002268C3F308035360E28C92B2013A92B2BF
:10070C00E284E38C9BB273B100963B4600228021BD
:10071C002046FFF74FFFE0B9002DE7D015F8012B6D
:10072C0023685A60E8E700963B46002240212046A9
:10073C00FFF740FF78B9202384F8393000E002201D
:10074C0002B0BDE8F0810120FAE70120F8E70220B1
:10075C00F6E70320F4E70320F2E72DE9F04182B03D
:10076C001E4690F83A30DBB2202B5BD104460D4686
:10077C00904600295AD0002A5AD090F83830012BD4
:10078C0058D0012380F838300023C363222380F82B
:10079C003A3000F093F90746A4F82C80A4F82E8088
:1007AC00A368B3F5805F05D04FF00008002384F8F0
:1007BC00383017E0236913B14FF00008F6E7A8466C
:1007CC000025F3E723685B68C3F3080328F8023BB2
:1007DC0003E023685B682B700135E28D92B2013A1D
:1007EC0092B2E285E38D9BB2BBB100963B460022F0
:1007FC0020212046FFF7DEFEF0B9002DE2D0A368E1
:10080C00B3F5805FE5D013B92369002BE1D02368E1
:10081C005B6803F07F032B70DEE7202384F83A300B
:10082C00002000E0022002B0BDE8F0810120FAE7D0
:10083C000120F8E70220F6E70320F4E7704708B53B
:10084C000168CA6822F04002CA60202280F8392070
:10085C00FFF7F4FF002008BD704708B590F83A3058
:10086C00DBB2222B41D18368B3F5805F14D0826A4E
:10087C00B3F5805F02D0E3B90369D3B903685B6851
:10088C001370836A01338362C38D9BB2013B9BB2AD
:10089C00C385A3B1002008BD0269002AE7D1826A92
:1008AC0003685B68C3F308031380836A02338362B3
:1008BC00EAE703685B6803F07F031370E1E7026803
:1008CC00D36823F02003D3600268D36823F48073C9
:1008DC00D3600268536923F001035361202380F82D
:1008EC003A30FFF7B9FF0020D5E70220D3E7704775
:1008FC0010B5044602681368D168526913F00F00F2
:10090C0005D113F0200F02D011F0200F13D128B114
:10091C0012F0010213D111F4907F10D113F0800F5B
:10092C0002D011F0800F6CD113F0400F02D011F0F7
:10093C00400F6AD110BD2046FFF78FFFFAE713F086
:10094C00010F06D011F4807F03D0E06B40F0010062
:10095C00E06313F0040F04D01AB1E06B40F0020016
:10096C00E06313F0020F04D01AB1E06B40F0040006
:10097C00E06313F0080F07D011F0200F00D11AB16B
:10098C00E26B42F00802E263E26B002AD2D013F071
:10099C00200F02D011F0200F21D123685B6903F0E6
:1009AC004003E26B12F0080F00D1E3B12046FFF7D1
:1009BC0079FD23685A6912F0400F1ED05A6922F053
:1009CC0040025A61636BA3B1124A5A63606B00F028
:1009DC00D9FC0028AED0606B436B9847AAE7204641
:1009EC00FFF73BFFD9E72046FFF781FF0023E363C6
:1009FC00A0E72046FFF77BFF9CE72046FFF777FF39
:100A0C0098E72046FFF75CFD94E72046FFF717FFB9
:100A1C0090E700BF250A000808B5406A0023C3858B
:100A2C00C384FFF764FF08BD90F8393090F83A00A2
:100A3C001843704710B504460E4B18784FF47A7370
:100A4C00B3FBF0F30C4A1068B0FBF3F000F03EFD82
:100A5C0068B90F2C01D901200AE0002221464FF081
:100A6C00FF3000F0EDFC054B1C60002000E0012085
:100A7C0010BD00BF040000200C0000200800002066
:100A8C0008B5074A136843F010031360032000F005
:100A9C00C5FC0020FFF7CEFFFFF79EFC002008BD31
:100AAC0000200240034B1B78034A11680B4413606F
:100ABC00704700BF0400002060040020014B186840
:100ACC00704700BF6004002038B50446FFF7F6FFFE
:100ADC000546B4F1FF3F02D0044B1B781C44FFF7D2
:100AEC00EDFF401BA042FAD338BD00BF040000202C
:100AFC0082B0084B1B68084AA2FB03235B0A00FB6D
:100B0C0003F3019300BF019B5A1E0192002BF9D1F4
:100B1C0002B070470C000020D34D6210002800F08A
:100B2C00ED8170B582B00446036813F0010F2CD030
:100B3C00994B5B6803F00C03042B1DD0964B5B6840
:100B4C0003F00C03082B12D06368B3F5803F41D03F
:100B5C00002B55D103F1804303F504331A6822F4BA
:100B6C0080321A601A6822F480221A6037E08A4BAD
:100B7C005B6813F4803FE7D0874B1B6813F4003F8E
:100B8C0003D06368002B00F0BB81236813F0020FC5
:100B9C0075D0814B5B6813F00C0F5FD07E4B5B689C
:100BAC0003F00C03082B54D02369002B40F08180F8
:100BBC007A4B00221A60FFF781FF0546764B1B68C3
:100BCC0013F0020F5BD0FFF779FF401B0228F5D919
:100BDC0003209AE1704A136843F48033136063680E
:100BEC0043B3FFF76BFF05466B4B1B6813F4003FD9
:100BFC00CBD1FFF763FF401B6428F5D9032084E1B8
:100C0C00B3F5A02F09D0644B1A6822F480321A6015
:100C1C001A6822F480221A60E1E703F18043A3F5FD
:100C2C003C331A6842F480221A601A6842F480320B
:100C3C001A60D4E7FFF742FF0546574B1B6813F4C5
:100C4C00003FA2D0FFF73AFF401B6428F5D90320E0
:100C5C005BE1514B5B6813F4803FA5D14E4B1B6895
:100C6C0013F0020F03D02369012B40F04B814A4A49
:100C7C00136823F0F803616943EAC1031360236826
:100C8C0013F0080F33D0A369002B5CD0434B012227
:100C9C00C3F88024FFF712FF05463F4B5B6A13F045
:100CAC00020F21D1FFF70AFF401B0228F5D90320C0
:100CBC002BE13A4B01221A60FFF700FF0546364B39
:100CCC001B6813F0020F06D1FFF7F8FE401B022839
:100CDC00F5D9032019E1304A136823F0F803616950
:100CEC0043EAC1031360CAE70120FFF701FF236841
:100CFC0013F0040F00F09680274BDB6913F0805F34
:100D0C0034D1254BDA6942F08052DA61DB6903F0A9
:100D1C0080530193019B0125214B1B6813F4807FA9
:100D2C0026D0E368012B3DD0002B53D103F1804337
:100D3C0003F504331A6A22F001021A621A6A22F0CD
:100D4C0004021A6233E0154B0022C3F88024FFF72B
:100D5C00B5FE0546104B5B6A13F0020FC7D0FFF7C8
:100D6C00ADFE401B0228F5D90320CEE00025D3E7C9
:100D7C000B4A136843F480731360FFF79FFE06461B
:100D8C00074B1B6813F4807FCBD1FFF797FE801BBA
:100D9C006428F5D90320B8E000100240000042425C
:100DAC00007000405F4A136A43F001031362E3686A
:100DBC0033B3FFF783FE06465A4B1B6A13F0020F40
:100DCC002FD1FFF77BFE801B41F288339842F3D979
:100DDC0003209AE0052B09D0524B1A6A22F001022B
:100DEC001A621A6A22F004021A62E0E74D4B1A6A80
:100DFC0042F004021A621A6A42F001021A62D6E741
:100E0C00FFF75CFE0646474B1B6A13F0020F08D037
:100E1C00FFF754FE801B41F288339842F3D903202C
:100E2C0073E0E5B9E369002B6ED03E4A526802F0DC
:100E3C000C02082A52D0022B17D03B4B00221A6608
:100E4C00FFF73CFE0446374B1B6813F0007F60D065
:100E5C00FFF734FE001B0228F5D9032055E0314A78
:100E6C00D36923F08053D361DCE72F4B00221A6641
:100E7C00FFF724FE05462B4B1B6813F0007F06D0B2
:100E8C00FFF71CFE401B0228F5D903203DE0236A26
:100E9C00B3F5803F1AD023494B6823F47413226AAC
:100EAC00606A024313434B601F4B01221A66FFF723
:100EBC0005FE04461B4B1B6813F0007F27D1FFF780
:100ECC00FDFD001B0228F5D903201EE0154A5368CE
:100EDC0023F40033A1680B435360DCE7012B1AD0D9
:100EEC00104B5B6803F48031226A914215D103F4F4
:100EFC007013626A934212D1002006E00120704701
:100F0C00012002E0012000E0002002B070BD0020B2
:100F1C00FBE70020F9E70120F7E70120F5E70120C6
:100F2C00F3E700BF001002400000424286B0164BAF
:100F3C000FCB0DF1180C0CE90F0040F20123ADF8AA
:100F4C000430124B5B6803F00C02082A02D01048E4
:100F5C0006B07047C3F38342624412F8100C13F4CA
:100F6C00803F0CD0094B5B68C3F34043634413F8D8
:100F7C00143C074A02FB00F0B0FBF3F0E8E7054B2A
:100F8C0003FB00F0E4E700BFB428000800100240A7
:100F9C0000127A0000093D00002800F0A08070B516
:100FAC000D460446524B1B6803F007038B420BD2D1
:100FBC004F4A136823F007030B431360136803F0C5
:100FCC0007038B4240F08D80236813F0020F17D07B
:100FDC0013F0040F04D0474A536843F4E0635360A2
:100FEC00236813F0080F04D0424A536843F460534B
:100FFC005360404A536823F0F003A1680B435360DD
:10100C00236813F0010F31D06368012B20D0022B21
:10101C0025D0384A126812F0020F64D035494A685C
:10102C0022F0030213434B60FFF748FD0646314B99
:10103C005B6803F00C036268B3EB820F16D0FFF70A
:10104C003DFD801B41F288339842F0D9032045E0E6
:10105C00284A126812F4003FE0D101203EE0254AF4
:10106C00126812F0007FD9D1012037E0204B1B68A9
:10107C0003F00703AB420AD91D4A136823F0070398
:10108C002B431360136803F00703AB422DD1236885
:10109C0013F0040F06D0174A536823F4E063E16899
:1010AC000B435360236813F0080F07D0114A5368A1
:1010BC0023F46053216943EAC1035360FFF736FF01
:1010CC000C4B5B68C3F303130B4AD35CD8400B4B3C
:1010DC0018600B4B1868FFF7ADFC002070BD0120A9
:1010EC0070470120FAE70120F8E70120F6E700BF7E
:1010FC000020024000100240C82800080C0000200C
:10110C0008000020014B1868704700BF0C0000203D
:10111C0008B5FFF7F7FF044B5B68C3F30223034AE0
:10112C00D35CD84008BD00BF00100240D82800088E
:10113C0008B5FFF7E7FF044B5B68C3F3C223034A10
:10114C00D35CD84008BD00BF00100240D82800086E
:10115C0070B582B00024A446A7E0814DAA4210D0FD
:10116C0007D9804DAA420CD005F58035AA4208D08B
:10117C0013E0A5F58015AA4203D005F57025AA4207
:10118C0007D18A68002A58D0012A51D0436108241B
:10119C0003E0A5F58015AA42F3D0BEF1FF0F4ED89F
:1011AC000646BEF1FF0F4CD84FEA8C0233680F2570
:1011BC00954023EA050304FA02F2134333604B68AB
:1011CC0013F0805F6FD0684B9A6942F001029A610C
:1011DC009B6903F001030193019B4FEA9C02951C50
:1011EC00624B53F825300CF00305AD000F26AE40D2
:1011FC0023EA06035E4EB04229D006F58066B04263
:10120C0000F0908006F58066B04200F08D8006F507
:10121C008066B04219D004261AE0CC68BDE7CC68D1
:10122C000434BAE7CC680834B7E7CC680C34B4E7BC
:10123C0003610824B1E70024AFE70424ADE7061DE1
:10124C00AFE7ACF108029200B0E7032600E00026FD
:10125C0006FA05F52B430232444D45F822304B6813
:10126C0013F4803F62D0434A136843EA0E031360C1
:10127C004B6813F4003F5FD03E4A536843EA0E03B9
:10128C0053604B6813F4801F5CD03A4A936843EA6E
:10129C000E0393604B6813F4001F59D0354AD36882
:1012AC0043EA0E03D3600CF1010C0A6832FA0CF31A
:1012BC0054D0012303FA0CF302EA030E33EA0202C0
:1012CC00F1D14A68122A3FF648AF122A3FF665AFB1
:1012DC0001A555F822F000BF8F1100082712000855
:1012EC003112000843120008A7110008A7110008CA
:1012FC00A7110008A7110008A7110008A7110008E2
:10130C00A7110008A7110008A7110008A7110008D1
:10131C00A7110008A7110008A71100082B1200083C
:10132C0037120008012693E7022691E7114A136849
:10133C0023EA0E0313609BE70E4A536823EA0E035D
:10134C0053609EE70B4A936823EA0E039360A1E770
:10135C00084AD36823EA0E03D360A4E702B070BD39
:10136C00000022100000311000100240000001406B
:10137C0000080140000401400AB1016170470904F2
:10138C000161704708B590F82130022B03D004237B
:10139C008363012008BD0268136823F00E031360F9
:1013AC000268136823F0010313600368194A93421F
:1013BC0014D0143293421FD0143293421ED01432E4
:1013CC0093421ED0143293421ED01432934202D058
:1013DC004FF0807203E04FF4801200E001220E4BBC
:1013EC005A60012380F82130002380F82030436BB1
:1013FC006BB198470020CDE71022F0E74FF48072D4
:10140C00EDE74FF48052EAE74FF48032E7E7002033
:10141C00C0E700BF0800024000000240074AD36842
:10142C0023F4E0631B041B0C000200F4E060034394
:10143C0043F0BF6343F40033D360704700ED00E02A
:10144C0000B5194BDB68C3F30223C3F1070CBCF1E5
:10145C00040F28BF4FF0040C03F1040EBEF1060F6D
:10146C0018D9033B4FF0FF3E0EFA0CFC21EA0C019D
:10147C0099400EFA03F322EA0303194300280BDB0D
:10148C000901C9B200F1604000F5614080F8001319
:10149C005DF804FB0023E5E700F00F000901C9B279
:1014AC00024B1954F4E700BF00ED00E014ED00E02E
:1014BC00002807DB00F01F02400901239340024A79
:1014CC0042F82030704700BF00E100E00138B0F175
:1014DC00807F0BD24FF0E0235861054AF02182F84F
:1014EC0023100020986107221A6170470120704771
:1014FC0000ED00E0704700224260826070470000FF
:10150C0030B587B000240294039404940594144BD2
:10151C009A6942F010029A619A6902F010020092E4
:10152C00009A9A6942F004029A619B6903F00403E1
:10153C000193019B0B4D22464FF400512846FFF7B7
:10154C001BFF4FF4005302930123039304940223D3
:10155C00059302A92846FFF7FBFD07B030BD00BF7D
:10156C000010024000100140012800D0704708B55F
:10157C004FF6FF73994200D008BD0A4881230360DF
:10158C0000234360836000F11002C260064AC0F879
:10159C00942080F8983080F89930044A044900F07F
:1015AC0075F9E9E764040020000500200000002024
:1015BC000315000870B505460C461646084600F0A3
:1015CC00EDF9334682B22146D5F89400FFF759F86D
:1015DC0070BD72B6FEE7000008B50A480A4B0360FE
:1015EC004FF4E133436000238360C36003610C223A
:1015FC0042618361C361FFF715F800B908BDFFF7BD
:10160C00E8FF00BF000500200038014000B591B094
:10161C002822002106A800F06FF900230193029301
:10162C000393049305930223069301230A93102337
:10163C000B9306A8FFF772FA68B90F2301930021E8
:10164C00029103910491059101A8FFF7A5FC20B923
:10165C0011B05DF804FBFFF7BCFFFFF7BAFF10B544
:10166C000346A1EB000E4FEAAE0E02E004330EF17E
:10167C00FF3EBEF1000F11DD187892F800C08445D2
:10168C0025D0581C5C78644522D0981C9C78A445C5
:10169C001ED0D81CDC78A445E8D119E0C81A022861
:1016AC000AD0032803D001280BD0084610E01C7880
:1016BC00107884420DD001331C78107884420AD003
:1016CC00013318781278904207D0084600E018468B
:1016DC0010BD1846FCE71846FAE71846F8E708B5B7
:1016EC004FF00003FFF7BBFF08BD000090B587B0BB
:1016FC0000AFFFF7C5F9FFF789FFFFF701FFFFF711
:10170C006BFF344C4FF47A7233492046FFF752FF8B
:10171C0041F28830FFF7D8F94FF47A722F492046FE
:10172C00FFF748FF6368A1688B4203D35B1A032B56
:10173C0005DCFEE7274A12685B1A1344F7E76C4690
:10174C00032307F1140203E0002102F8011B013B03
:10175C00002BF9DA4FF47A73042207F114011D48B7
:10176C00D0F89400FEF7F9FFF871FB7943B1FB79DF
:10177C00A546002BDDD1174B9A68BB60FA60D8E701
:10178C00FB7407F1130207F1180107F11400FFF7BE
:10179C00A6FF864607F1140206E00131B1FBF0F317
:1017AC0000FB13110B4B99609645E0D012F801CB5E
:1017BC000849C8684B6800F803C04B6801330868D7
:1017CC00B3FBF0FC00FB1C334B6089688B42EBD104
:1017DC00E3E700BF64040020E0280008EC280008C0
:1017EC0008B54FF6FF710120FFF7BEFE08BDFEE7FE
:1017FC00FEE7FEE7FEE7FEE770477047704708B567
:10180C00FFF750F908BD000008B50C4BD3F8940055
:10181C00FFF70AF938B120280AD0084BD3F8940006
:10182C00FFF766F808BD054B002283F89820F4E713
:10183C00024B012283F89820EFE700BF64040020DC
:10184C00002103E00B4B5B58435004310A480B4B0F
:10185C0042189A42F6D30A4A02E0002342F8043BAB
:10186C00084B9A42F9D3FFF745FE00F021F8FFF739
:10187C003DFF7047802B000800000020440400202E
:10188C004404002048050020FEE700000B460146FA
:10189C00184600F001B800BF8C4600B586461346CA
:1018AC007146022062465DF804EB00F0A5B800BF5B
:1018BC0070B50D4E0D4D761BB61006D0002455F8A4
:1018CC00043B01349847A642F9D1094E094D00F06A
:1018DC00DFFF761BB61006D0002455F8043B01340C
:1018EC009847A642F9D170BD702B0008702B0008E8
:1018FC007C2B0008702B0008830730B548D0541E91
:10190C00002A3FD00346CAB201E0013C3AD303F8A7
:10191C00012B9D07F9D1032C2DD9CDB245EA052514
:10192C000F2C45EA054536D9A4F1100222F00F0C14
:10193C0003F1200EE6444FEA121C03F1100242E9B7
:10194C00045542E9025510327245F8D10CF10102EE
:10195C0014F00C0F03EB021204F00F0C13D0ACF1CB
:10196C00040323F003030433134442F8045B93424F
:10197C00FBD10CF003042CB1CAB21C4403F8012BAC
:10198C009C42FBD130BD64461346002CF4D1F9E7E0
:10199C0003461446BFE71A46A446E0E720F00301CD
:1019AC0010F00300C0F1000051F8043B00F1040CEE
:1019BC004FEACC0C6FF000021CBF22FA0CF213435E
:1019CC004FF0010C4CEA0C2C4CEA0C4CA3EB0C0227
:1019DC0022EA030212EACC1204BF51F8043B043091
:1019EC00F4D0C2F1000102EA0102B2FA82F2C2F1B1
:1019FC001F0200EBD20070472DE9F047DFF87CA006
:101A0C000646DAF8000098460F46914600F05AF860
:101A1C001B4B1B68D3F8484124B365681F2D26DC8B
:101A2C005EB96B1C0235DAF80000636044F825706F
:101A3C0000F04AF80020BDE8F087012304EB850193
:101A4C00C1F88890D4F88821AB401A43022EC4F810
:101A5C008821C1F80881E4D1D4F88C211343C4F84F
:101A6C008C31DEE703F5A674C3F84841D5E7DAF804
:101A7C00000000F029F84FF0FF30DCE740040020B4
:101A8C00FC280008024B13B1024800F01FB8704745
:101A9C0000000000A51A000838B5084B084D5B1B68
:101AAC009C1007D0043B1D44013C55F80439984761
:101ABC00002CF9D1BDE8384000F0F0BE802B0008B6
:101ACC007C2B0008704700BF704700BF0023014605
:101ADC001A461846FFF790BF03685A004CBF43F0F4
:101AEC00004323F000431844704700BF2DE9F8432E
:101AFC0039B34F1E044615463E464FF0000808EB1E
:101B0C00060101EBD171491004EBC1094846FFF7FE
:101B1C00E3FF0346C80008308F4220440BD0AB4291
:101B2C000BD8FFF7D9FF0138A84201F10108E6D321
:101B3C004846BDE8F883AB42FAD9884501D04E1E21
:101B4C00DDE74FF000094846BDE8F883012807D0CF
:101B5C00022807D0044B00280CBF18460020704701
:101B6C000248704702487047392200084122000899
:101B7C004922000830B5244B044683B08D1E3BB37C
:101B8C00284601A9AFF30080E8B101992A46FFF776
:101B9C00ADFF0146B8B1FFF79FFF4B68A064012B66
:101BAC002ED0002B27DB081DFFF796FF0023C4E97E
:101BBC0013030368002B12DBFFF78EFF0346002094
:101BCC00236103B030BD00230920236103B030BD75
:101BDC000E4B0F491846C91AC9100191D6E7C3F329
:101BEC000360FFF7B3FF0028034614BF0020092051
:101BFC00236103B030BD0123081DC4E91303D8E7EA
:101C0C00002305202361DCE7000000007829000890
:101C1C00702B0008036810B5DA07044606D49B073E
:101C2C0000F1480009D5FEF77FFA2368590709D55A
:101C3C001A070ED5DB0613D510BDFEF76DFA236817
:101C4C005907F5D404F1D000FEF776FA23681A0789
:101C5C00F0D404F5A870FEF777FA2368DB06EBD412
:101C6C0004F5E870BDE81040FEF7B2BA0346006810
:101C7C0000B11844704700BF704700BF70B50446F0
:101C8C000E462046316CFFF775FF054698B9D6F81D
:101C9C0040C03246214601202369C4F814C098473D
:101CAC000828EED0072806D12846316CFFF7E4FF50
:101CBC00301DFEF725FA00F08DFD00BF2DE9F04731
:101CCC004FF0000AADF5727D0DF10C0E01F1040C14
:101CDC00C768D0F8188006461446BCE80F00AEE87A
:101CEC000F00BCE80F00AEE80F00BCE80F00AEE838
:101CFC000F009CE80F0002AD8EE80F00C5F800A0A5
:101D0C0021E02B6C4FF4F072294673617AA8FEF730
:101D1C00CDFA3146504633697AAA9847889C824658
:101D2C006C643346324649460120CDE90058B84729
:101D3C000446F0B94FF4F07228467AA9FEF7B6FAC9
:101D4C00BAF1080F1BD13046296CFFF713FF04F1D1
:101D5C0009095FFA89FA04460028D2D0A96B3346E8
:101D6C00696432460120CDE900584AF01001B847A9
:101D7C0000B1092420460DF5727DBDE8F087BAF15B
:101D8C00070FF6D12046296CFFF776FF03A8FEF764
:101D9C00B7F900BFF0B54FF0FF37CB6BF9B00B6460
:101DAC0001AC01F1040C0E460546BCE80F000FC453
:101DBC00BCE80F000FC4BCE80F000FC49CE80F0078
:101DCC0084E80F00009706E06A4629462B6998477D
:101DDC000828044608D128461099FFF7CBFE0028A6
:101DEC00F2D0092079B0F0BD6846FFF713FF062C3E
:101DFC00F7D131462846FFF741FF00BF10B4144617
:101E0C008461DC6BC16000221C64194610BCFFF7B6
:101E1C0055BF00BF70B54369C6680B64AEB90A46BE
:101E2C00036904460D46014602209847072805D051
:101E3C0008280FD129462046FFF720FF3046296C91
:101E4C00FFF71AFF281DFEF75BF90122FFF736FF9B
:101E5C0000F0C0FC00F0BEFCC26832B1D1F83CC04E
:101E6C000022C1F840C0FFF729BFFFF793BF00BFA6
:101E7C00012912D009D873B90F2A0CD800EB8200B3
:101E8C0042681846009B1A6070470339012994BFB9
:101E9C00012002207047022070470846704700BF9F
:101EAC00002300B585B00A4603A900911946FFF737
:101EBC00DFFF039805B05DF804FB00BF012912D0C9
:101ECC0009D873B90F2A0CD8009900EB8202096863
:101EDC001846516070470339012994BF0120022034
:101EEC007047022070470846704700BF002310B5AA
:101EFC0084B003AC039200940A461946FFF7DEFF48
:101F0C0004B010BD70B54FF0FF36D36BADF50E7D40
:101F1C0013640DF15C0E02F1040C05460C46BCE892
:101F2C000F00AEE80F00BCE80F00AEE80F00BCE8F5
:101F3C000F00AEE80F009CE80F008EE80F0016961D
:101F4C0012E00C2116A86A46FFF7D0FF214616A80E
:101F5C00A84778B969460820049B16AA9847052813
:101F6C00064608D0092805D068462699FFF702FED8
:101F7C000028E6D0092616A8FFF74CFE30460DF5D2
:101F8C000E7D70BD2DE9F04F1E46CC6C89B054F817
:101F9C00043B0D46174600F003080694002E79D03A
:101FAC0002228DF81C201A0C8DF81D201B04D2B2B5
:101FBC00059304EB82042B6DB8F1020F08BFAC6BD8
:101FCC0013F001030CD0384605A900F091FA18B9AA
:101FDC00082009B0BDE8F08F092009B0BDE8F08FEA
:101FEC00D4F800A0BAF1000FEDD0019300F0080373
:101FFC000293022E4AD0B4F800A0B4F80290043434
:10200C00AA6C0F21384629F0010B9344FFF748FFC7
:10201C00834539D82AF001025A44824294BF0020E9
:10202C0001204FEA490303F002030AF0010A43EAD4
:10203C000A03012B49D0022B32D0002BCCD1B8F1A2
:10204C00000F02D0002840F0CE800434D4F800A059
:10205C00BAF1000FCDD1384605A900F049FA002895
:10206C00BAD1019B002BB3D00F213846FFF718FFD4
:10207C000E2102463846FFF739FF38460F216A4ACF
:10208C00FFF734FF0720A8E70020CAE7D4F8049034
:10209C000834B5E71B0205930323ADF81C308AE71F
:1020AC00236823F0004BB8F1000F45D128B1029AF8
:1020BC00002A5CD0BBF1000F74D0002B00DA043482
:1020CC000BF1010B04EB8B04C0E7B8F1000F19D135
:1020DC00B0B163682268991C4FEAD2723FF47CAFAE
:1020EC0005F158010133049100F09180201DFFF798
:1020FC00BDFD04AB01462846AFF3008000285CD13F
:10210C000834A3E70D213846D5F82090FFF7C8FE18
:10211C008145F5D1AB6A9C42F2D12046FFF7DCFC3D
:10212C000F2102463846FFF7E1FE38462A460021C9
:10213C00FFF7DCFE072050E70D213846D5F820903C
:10214C00FFF7AEFE814501D02368B6E7AB6A9C422F
:10215C00FAD104230022C5E90B23E318C5F828B0F3
:10216C006B632368002B5ADB01230193A8E705F16D
:10217C005803CDF80C809146B04604F1040A1E4673
:10218C000EE050460496FFF771FD0022014604ABA9
:10219C00284609F101090AF1040AAFF30080E8B9F5
:1021AC00D945EED10D213846FFF77AFE0346049A45
:1021BC000620C5E909242B620FE781460D2138461C
:1021CC00FFF76EFEB9F1020F286225D12B46049A57
:1021DC0043F82C2F6B620620AC62FEE64646236861
:1021EC00DDF80C8069E72046FFF776FC02460434E4
:1021FC00AC6328461446AFF3008000283FF4ECAEE5
:10220C00384622460F21FFF771FE0720E5E60D2127
:10221C003846FFF745FE2862049B6B62DBE70BF147
:10222C00010004EB800079E7000000000023FFF7B9
:10223C00A9BE00BF0123FFF7A5BE00BF0223FFF715
:10224C00A1BE00BF2DE9F043064615461C46C3B09F
:10225C00042900F2B880DFE801F09C56B62D03008B
:10226C00002C40F0B080102A00F2AD800368D80634
:10227C0000F1F18020AF3846FDF7B4FF0124384659
:10228C000023B16B04FA03F22A4203F1010305D0D7
:10229C000A4652F804CB1146C0F800C0042B00F1DA
:1022AC000400EFD13846B163FDF792FF002043B034
:1022BC00BDE8F083032C40F0868094B204EB12430B
:1022CC00102B4FEA12457ED803681F0700F1CB8014
:1022DC0020AF3846FDF75AFFB26B07EBC50154B17E
:1022EC000B4601EBC401D01AE4001D5843F8045B03
:1022FC008B42FAD122443846B263FDF725FF002009
:10230C0043B0BDE8F083012C4FEA124895B256D089
:10231C00052C58D108EB0509B9F1200F53D8B8F1A9
:10232C000F0F73D9A946002D40F08480B36B65B3B1
:10233C0020AF4FF0000907EBC807043F03EBC505BE
:10234C0053F8041BAB4247F8041FF9D1B9F1000F45
:10235C000FD06F464146102938BF102107EBC10141
:10236C00843903EBC90553F8040BAB4241F8040F55
:10237C00F9D1012C7FD0B8F10F0FB56342D9B9F167
:10238C00000F02D06846FDF7D7FE002043B0BDE831
:10239C00F083C4B923460124826B371DA8B204FA1A
:1023AC0003F101421CBF52F8041B47F82310013300
:1023BC00102BF4D115F40050E7D1B26304E008EB14
:1023CC000503102B03D9022043B0BDE8F083B8F10C
:1023DC000F0FF8D83368DA0706D5304623F003031D
:1023EC0040F8483BFDF79CFE20AF3846FDF798FEC1
:1023FC00B36B002D9DD11D4604353846B563FDF7F2
:10240C008BFEC2E720A8FDF78FFEB8E7B9F1100FDD
:10241C003FD9A9F110093368D90708D5304623F004
:10242C00010343F0020340F8483BFDF781FEB9F18C
:10243C00000F31D033685A071FD4B8F10F0F24D9CD
:10244C006F46C8F110053846FDF77AFE002DB36BC8
:10245C0080DD20AF6FE723F01003336006F5E870E2
:10246C00FDF7C0FE06E723F00803036000F5A87033
:10247C00FDF78CFE2CE720AFBEE7304623F00403BB
:10248C0040F8D03BFDF75CFED7E720A8FDF750FEE7
:10249C00D6E74FF00009BEE7B8F10F0F3FF646AF95
:1024AC0020AF3846FDF744FEB36B002D7FF441AFEF
:1024BC003846FDF739FE68E7027A03467AB9427A64
:1024CC00A2B14FF0030C4168013A427208680A1D30
:1024DC005A60020283F808C0000E1A607047006848
:1024EC00013A1A7202021A60000E7047B02070474F
:1024FC002DE9F0434FF0000805460E4685B03046F6
:10250C00FFF7DAFFB028044600F0BA80070620D5A2
:10251C0000F0F003802B4DD0902B36D0A02B60D048
:10252C00B02B73D0C02B00F08A8000F0F803D02BB6
:10253C000BD100F00702013205230121284642F499
:10254C000022FFF77FFE0028D9D0092005B0BDE896
:10255C00F0838300DBB21F1D00230DF10C0919461B
:10256C000D222846CDF80090FFF782FC039B6006F5
:10257C004CBFDF1BFF1800230D2228461946CDF84F
:10258C0000900397FFF79AFCB9E700F00D030D2BB1
:10259C00DBD0002303AF194600F00F02009728464A
:1025AC00FFF766FC00230D22284619460097FFF71B
:1025BC0085FCA4E73046FFF77FFF24022043B0F5EB
:1025CC00004FC2D00023040119462846A2B2FFF7DF
:1025DC0039FE0028B9D114F4004F18BF4FF0010890
:1025EC008DE7C3434FF47F6203F007031A410023C6
:1025FC00010702F47F6248BF42F480422846194624
:10260C00FFF720FE00283FF47AAF9EE7B1283CD0BC
:10261C00B22800F0B080B3284AD000F0FC03B42BF1
:10262C0093D0012300F007021A442846194642F4BD
:10263C000022FFF707FE00283FF461AF85E7C628AC
:10264C004FD0C72861D000F0F803C02B70D0C82839
:10265C007CD0C9287FF479AF3046FFF72DFF0523D6
:10266C00024601212846140302F00F0204F47024E0
:10267C000A442243FFF7E6FD00283FF440AF64E72D
:10268C00B8F1000F1CD0002060E73046FFF714FFB4
:10269C00024600283FF459AF10F0F0037FF455AF19
:1026AC0019462846FFF7CEFD00283FF428AF4CE72B
:1026BC003046FFF701FF0123024619462846D2E7B0
:1026CC0003AC43460E22414628460094FFF7D0FB4C
:1026DC0043460F22284641460094FFF7EFFB404645
:1026EC0034E73046FFF7E8FE02460323140302F0FA
:1026FC000F0204F470240132284619462243FFF7D6
:10270C00A1FD00283FF4FBAE1FE73046FFF7D4FED7
:10271C00024600283FF419AF10F0F0037FF415AF18
:10272C0004212846FFF78EFD00283FF4E8AE0CE7A5
:10273C00032300F00F0201322846194642F42022EE
:10274C00FFF780FD00283FF4DAAEFEE63046FFF7D7
:10275C00B3FE0246012102F0F00402F00F02103425
:10276C000A440523284642EA0432FFF76BFD002891
:10277C003FF4C5AEE9E600230DF10C090D22194614
:10278C002846CDF80090FFF773FB3046FFF794FE18
:10279C0002064FF002040CD5039B00F07F00A04012
:1027AC00184403903046FFF787FE030604F1070434
:1027BC00F2D4039B00F07F02A24003F501731A448C
:1027CC000023039228460D221946CDF80090FFF7FE
:1027DC0075FB94E6062008B500F004F8012000F023
:1027EC0055F800BF38B5154B1F281D6820D8D5F8F3
:1027FC00DC22044662B152F820304BB1012B15D0CB
:10280C00591C0FD0002542F820509847284638BD57
:10281C00284600F029F8224601462846BDE83840F3
:10282C0000F00EB8162301202B6038BD002038BDF7
:10283C0016234FF0FF302B6038BD00BF1000002076
:10284C0070B50026074D0446084611462E6000F070
:10285C0015F8431C00D070BD2B68002BFBD02360F7
:10286C0070BD00BF4405002000F000B85822024B98
:10287C004FF0FF301A607047440500205822024B7D
:10288C004FF0FF301A60704744050020FEE700BF90
:10289C00F8B500BFF8BC08BC9E467047F8B500BF41
:0828AC00F8BC08BC9E46704711
:1028B40002030405060708090A0B0C0D0E0F10107D
:1028C40000000000000000000000000001020304FA
:1028D40006070809000000000102030441542B52BA
:1028E40053540D0A0000000041540D0A000000007A
:0C28F4004F4B0D0A0000000018000020EF
:1029000008B10181B0B000840000000008B101816D
:10291000B0B000840000000008B10181B0B00084B4
:102920000000000008B10181B0B000840000000088
:1029300008B10181B0B000840000000008B101813D
:10294000B0B000840000000006970181B0B0098497
:102950000000000008B10181B0B000840000000058
:1029600008B10181B0B000840000000008B101810D
:08297000B0B00084000000007B
:102978006CDAFF7F01000000A8DAFF7FB0A90680AB
:1029880028DBFF7F010000009CDBFF7FB0B0A88040
:1029980028DCFF7FAD08B18090DCFF7FB0B0A88055
:1029A800E6DCFF7FB0AC018098DEFF7F010000000D
:1029B80092DEFF7F44FFFF7FA4DEFF7F010000005F
:1029C8009EDEFF7F40FFFF7F2ADFFF7F01000000C0
:1029D80024DFFF7FB0B0A88044E0FF7F34FFFF7F93
:1029E8004CE0FF7F0100000050E0FF7FB0B0A880FE
:1029F80094E0FF7F28FFFF7FB0E0FF7F0100000029
:102A0800CCE0FF7FA908B180ECE0FF7F0100000067
:102A180010E1FF7FB0AA018018E5FF7F01000000E8
:102A28007CE5FF7FB0B0AA80E0E6FF7F01000000F0
:102A380058E9FF7FF4FEFF7FE8E9FF7F010000000F
:102A4800C4EAFF7FB0A9068024EBFF7F01000000E5
:102A580068EBFF7FB0B0AA807EEBFF7F010000002B
:102A68007CEBFF7FD0FEFF7FA8EBFF7F0084108008
:102A7800F2EBFF7F0100000078ECFF7FC4FEFF7FD0
:102A880064EDFF7F010000007AEDFF7FC0FEFF7F4D
:102A98007CEDFF7FC4FEFF7FACEDFF7F01000000EF
:102AA80014EEFF7FB0B0AA8054EEFF7F0100000053
:102AB8004CEFFF7FB0B0AE80D0EFFF7F0100000089
:102AC800DCEFFF7FA908B18000F0FF7F0100000064
:102AD800A8F0FF7FB0A9028040F1FF7FB0B0A880C6
:102AE80090F1FF7F0100000098F1FF7FB0B0AA804D
:102AF800D0F1FF7FAE71B280A0F2FF7FAB3F38808C
:102B080000F3FF7F0100000010F3FF7FB0B0AA8040
:102B18004CF3FF7F01000000F0F3FF7FAA0DB280A5
:102B280068F4FF7FB0AF088008F7FF7F010000005E
:102B380018F7FF7FAD3F028084F9FF7F0100000096
:102B4800B4F9FF7FB0AD048090FCFF7F18FEFF7FD3
:102B580098FCFF7FA908B180ECFCFF7FB0B0AA8089
:082B68000CFDFF7F01000000DD
:0C2B7000911A0008C9030008ED170008C6
:042B7C00A5030008A5
:102B80000000000001000000100000000024F4001C
:102B900018000020000000000000000004030020D6
:102BA0006C030020D403002000000000000000009F
:102BB0000000000000000000000000000000000015
:102BC0000000000000000000000000000000000005
:102BD00000000000000000000000000000000000F5
:102BE00000000000000000000000000000000000E5
:102BF00000000000000000000000000000000000D5
:102C000000000000000000000000000000000000C4
:102C100000000000000000000000000000000000B4
:102C200000000000000000000000000000000000A4
:102C30000000000000000000000000000000000094
:102C400001000000000000000E33CDAB34126DE631
:102C5000ECDE05000B00000000000000000000009A
:102C60000000000000000000000000000000000064
:102C70000000000000000000000000000000000054
:102C80000000000000000000000000000000000044
:102C90000000000000000000000000000000000034
:042FC00040050020A8
:040000050800184D8A
:00000001FF
