:020000040800F2
:100000000050002021230008F9220008FB220008EC
:10001000FD220008FF220008012300080000000064
:1000200000000000000000000000000003230008A2
:10003000052300080000000007230008092300082A
:100040006923000869230008692300086923000860
:100050006923000869230008692300086923000850
:100060006923000869230008692300086923000840
:100070006923000869230008692300086923000830
:100080006923000869230008692300086923000820
:100090006923000869230008692300086923000810
:1000A0006923000869230008692300086923000800
:1000B00069230008692300086923000869230008F0
:1000C00069230008692300086923000869230008E0
:1000D0006923000811230008692300086923000828
:1000E0006923000869230008692300080000000054
:1000F0000000000000000000000000000000000000
:0C01000000000000000000005FF808F1A3
:1001100080EA010C1CF0030F37D110F0030C20F023
:10012000030021F0030150F8042B08BF51F8043BF1
:100130000ED08CF0030C6FF07F434FEACC0C23FA07
:100140000CFC51F8043B42EA0C0243EA0C0300BFEA
:10015000A2F1013C9A4201BF2CEA020C1CF0803F44
:1001600050F8042B51F8043BF2D04FEA02604FEAFA
:100170001222012828BFB0EB036F08BF1B0AF4D07E
:1001800003F0FF03000EC01A704710F0030F0AD0EF
:1001900010F8012B11F8013B012A28BF9A42F4D034
:1001A000A2EB030070474DF8045D50F8042B01F0FA
:1001B000030521F0030151F8043B022D26D04DD850
:1001C00022F07F45B5EB132FA2F1013C2CEA020C83
:1001D0000DD11CF0803C08BF51F8043B0AD185EAE0
:1001E0000205B5EB036F0CD150F8042BE8E74FEA9A
:1001F00013235BE03CF07F4C54D10B784FEA12653F
:1002000054E04FEA126503F0FF034FE04FEA024566
:10021000A2F1013C4FEA15452CEA020CB5EB134F55
:1002200018D11CF0803C08BF51F8043B07D185EA87
:100230000205B5EB034F09D150F8042BE6E75FEA5E
:100240000C4C2FD10B884FEA12452FE04FEA0343A5
:100250004FEA12454FEA134328E000BF02F0FF05C2
:10026000B5EB136FA2F1013C2CEA020C0DD11CF08E
:10027000803C08BF51F8043B0AD185EA0205B5EB82
:10028000032F0AD150F8042BE8E74FEA13630DE07F
:1002900012F0FF0F06D051F8043B4FEA122523F06D
:1002A0007F4303E04FF0000020BC704705F0FF02E1
:1002B00003F0FF00012828BF904204BF2D0A1B0A4B
:1002C000F4D0A2EB000020BC704700BF844641EA96
:1002D000000313F0030349D1403A23D30B680360B2
:1002E0004B6843608B688360CB68C3600B690361B4
:1002F0004B6943618B698361CB69C3610B6A03629C
:100300004B6A43628B6A8362CB6AC3620B6B036383
:100310004B6B43638B6B8363CB6BC3634030403168
:10032000403ADBD230320BD30B6803604B6843603A
:100330008B688360CB68C36010301031103AF3D201
:100340000C3205D351F8043B40F8043B043AF9D28F
:10035000043208D0D2071CBF11F8013B00F8013B62
:1003600001D30B8803806046704700BF082A13D36F
:100370008B07B1D010F00303AED0C3F10403D21A3F
:10038000DB071CBF11F8013B00F8013BA4D331F897
:10039000023B20F8023B9FE7043AD9D3013A11F817
:1003A000013B00F8013BF9D20B7803704B784370A6
:1003B0008B7883706046704781F0004102E000BF97
:1003C00083F0004330B54FEA41044FEA430594EA15
:1003D000050F08BF90EA020F1FBF54EA000C55EA50
:1003E000020C7FEA645C7FEA655C00F0E2804FEA21
:1003F0005454D4EB5555B8BF6D420CDD2C4480EA03
:10040000020281EA030382EA000083EA010180EA32
:10041000020281EA0303362D88BF30BD11F0004F80
:100420004FEA01314FF4801C4CEA113102D04042B6
:1004300061EB410113F0004F4FEA03334CEA1333F1
:1004400002D0524263EB430394EA050F00F0A78009
:10045000A4F10104D5F1200E0DDB02FA0EFC22FA04
:1004600005F2801841F1000103FA0EF2801843FAF8
:1004700005F359410EE0A5F120050EF1200E012AE9
:1004800003FA0EFC28BF4CF0020C43FA05F3C01827
:1004900051EBE37101F0004507D54FF0000EDCF1A0
:1004A000000C7EEB00006EEB0101B1F5801F1BD349
:1004B000B1F5001F0CD349085FEA30004FEA3C0C4D
:1004C00004F101044FEA445212F5800F80F09A8043
:1004D000BCF1004F08BF5FEA500C50F1000041EB47
:1004E000045141EA050130BD5FEA4C0C404141EB4B
:1004F0000101013C28BFB1F5801FE9D291F0000F46
:1005000004BF01460020B1FA81F308BF2033A3F1F4
:100510000B03B3F120020CDA0C3208DD02F1140CEB
:10052000C2F10C0201FA0CF021FA02F10CE002F126
:100530001402D8BFC2F1200C01FA02F120FA0CFC1F
:10054000DCBF41EA0C019040E41AA2BF01EB045168
:10055000294330BD6FEA04041F3C1CDA0C340EDC66
:1005600004F11404C4F1200220FA04F001FA02F3A9
:1005700040EA030021FA04F345EA030130BDC4F167
:100580000C04C4F1200220FA02F001FA04F340EA5C
:100590000300294630BD21FA04F0294630BD94F00D
:1005A000000F83F4801306BF81F480110134013DF4
:1005B0004EE77FEA645C18BF7FEA655C29D094EA65
:1005C000050F08BF90EA020F05D054EA000C04BFE3
:1005D0001946104630BD91EA030F1EBF00210020CE
:1005E00030BD5FEA545C05D14000494128BF41F06D
:1005F000004130BD14F580043CBF01F5801130BDD1
:1006000001F0004545F0FE4141F470014FF000005B
:1006100030BD7FEA645C1ABF194610467FEA655C0C
:100620001CBF0B46024650EA013406BF52EA0335AE
:1006300091EA030F41F4002130BD00BF90F0000F9C
:1006400004BF0021704730B54FF4806404F13204D8
:100650004FF000054FF0000150E700BF90F0000F91
:1006600004BF0021704730B54FF4806404F13204B8
:1006700010F0004548BF40424FF000013EE700BF88
:1006800042004FEAE2014FEA31014FEA02701FBF18
:1006900012F07F4393F07F4F81F06051704732F04A
:1006A0007F4208BF704793F07F4F04BF41F40021A1
:1006B000704730B54FF4607401F0004521F00041FF
:1006C0001CE700BF50EA010208BF704730B54FF089
:1006D00000050AE050EA010208BF704730B511F08A
:1006E000004502D5404261EB41014FF4806404F1C2
:1006F00032045FEA915C3FF4D8AE4FF003025FEA48
:10070000DC0C18BF03325FEADC0C18BF033202EBCB
:10071000DC02C2F1200300FA03FC20FA02F001FA25
:1007200003FE40EA0E0021FA02F11444BDE600BFC8
:1007300070B54FF0FF0C4CF4E06C1CEA11541DBF77
:100740001CEA135594EA0C0F95EA0C0F00F0DEF842
:100750002C4481EA030621EA4C5123EA4C5350EA27
:10076000013518BF52EA033541F4801143F4801378
:1007700038D0A0FB02CE4FF00005E1FB02E506F009
:100780000042E0FB03E54FF00006E1FB03569CF05E
:10079000000F18BF4EF0010EA4F1FF04B6F5007F64
:1007A00064F5407404D25FEA4E0E6D4146EB0606D6
:1007B00042EAC62141EA55514FEAC52040EA5E505F
:1007C0004FEACE2EB4F1FD0C88BFBCF5E06F1ED809
:1007D000BEF1004F08BF5FEA500E50F1000041EB40
:1007E000045170BD06F0004646EA010140EA0200ED
:1007F00081EA0301B4EB5C04C2BFD4EB0C0541EA0F
:10080000045170BD41F480114FF0000E013C00F323
:10081000AB8014F1360FDEBF002001F0004170BD47
:10082000C4F10004203C35DA0C341BDC04F1140460
:10083000C4F1200500FA05F320FA04F001FA05F2EC
:1008400040EA020001F0004221F0004110EBD370B9
:1008500021FA04F642EB06015EEA430E08BF20EAE5
:10086000D37070BDC4F10C04C4F1200500FA04F388
:1008700020FA05F001FA04F240EA020001F000411A
:1008800010EBD37041F100015EEA430E08BF20EA8D
:10089000D37070BDC4F1200500FA05F24EEA020ED5
:1008A00020FA04F301FA05F243EA020321FA04F004
:1008B00001F0004121FA04F220EA020000EBD370BB
:1008C0005EEA430E08BF20EAD37070BD94F0000FBB
:1008D0000FD101F00046400041EB010111F4801FEF
:1008E00008BF013CF7D041EA060195F0000F18BFA0
:1008F000704703F00046520043EB030313F4801FDC
:1009000008BF013DF7D043EA0603704794EA0C0F95
:100910000CEA135518BF95EA0C0F0CD050EA4106AB
:1009200018BF52EA4306D1D181EA030101F0004128
:100930004FF0000070BD50EA410606BF1046194650
:1009400052EA430619D094EA0C0F02D150EA01365C
:1009500013D195EA0C0F05D152EA03361CBF10469D
:1009600019460AD181EA030101F0004141F0FE413C
:1009700041F470014FF0000070BD41F0FE4141F4C0
:10098000780170BD70B54FF0FF0C4CF4E06C1CEAC0
:1009900011541DBF1CEA135594EA0C0F95EA0C0F75
:1009A00000F0A7F8A4EB050481EA030E52EA033530
:1009B0004FEA013100F088804FEA03334FF0805551
:1009C00045EA131343EA12634FEA022245EA11157E
:1009D00045EA10654FEA00260EF000419D4208BF2F
:1009E000964244F1FD0404F5407402D25B084FEADC
:1009F0003202B61A65EB03055B084FEA32024FF488
:100A000080104FF4002CB6EB020E75EB030E22BFE4
:100A1000B61A754640EA0C005B084FEA3202B6EBA4
:100A2000020E75EB030E22BFB61A754640EA5C0053
:100A30005B084FEA3202B6EB020E75EB030E22BFE3
:100A4000B61A754640EA9C005B084FEA3202B6EBE4
:100A5000020E75EB030E22BFB61A754640EADC00A3
:100A600055EA060E18D04FEA051545EA16754FEA05
:100A700006164FEAC30343EA52734FEAC2025FEA23
:100A80001C1CC0D111F4801F0BD141EA00014FF0B2
:100A900000004FF0004CB6E711F4801F04BF014383
:100AA0000020B4F1FD0C88BFBCF5E06F3FF6AFAE9F
:100AB000B5EB030C04BFB6EB020C5FEA500C50F12F
:100AC000000041EB045170BD0EF0004E4EEA1131B2
:100AD00014EB5C04C2BFD4EB0C0541EA045170BDB9
:100AE00041F480114FF0000E013C90E645EA060EFD
:100AF0008DE60CEA135594EA0C0F08BF95EA0C0F2B
:100B00003FF43BAF94EA0C0F0AD150EA01347FF472
:100B100034AF95EA0C0F7FF425AF104619462CE749
:100B200095EA0C0F06D152EA03353FF4FDAE1046AC
:100B3000194622E750EA410618BF52EA43067FF4FD
:100B4000C5AE50EA41047FF40DAF52EA43057FF48D
:100B5000EBAE12E74FF0FF3C06E000BF4FF0010C98
:100B600002E000BF4FF0010C4DF804CD4FEA410CFC
:100B70007FEA6C5C4FEA430C18BF7FEA6C5C1BD0C9
:100B800001B050EA410C0CBF52EA430C91EA030F4A
:100B900002BF90EA020F0020704710F1000F91EAA7
:100BA000030F58BF994208BF90422CBFD8176FEA75
:100BB000E37040F0010070474FEA410C7FEA6C5C43
:100BC00002D150EA013C07D14FEA430C7FEA6C5C4A
:100BD000D6D152EA033CD3D05DF8040B704700BF76
:100BE0008446104662468C461946634600E000BFC4
:100BF00001B5FFF7B7FF002848BF10F1000F01BD96
:100C00004DF808EDFFF7F4FF0CBF012000205DF860
:100C100008FB00BF4DF808EDFFF7EAFF34BF0120E5
:100C200000205DF808FB00BF4DF808EDFFF7E0FF7E
:100C300094BF012000205DF808FB00BF4DF808EDCF
:100C4000FFF7CEFF94BF012000205DF808FB00BF36
:100C50004DF808EDFFF7C4FF34BF012000205DF818
:100C600008FB00BF4FEA410C7FEA6C5C02D150EAFE
:100C7000013C0AD14FEA430C7FEA6C5C02D152EA94
:100C8000033C02D14FF0000070474FF00100704765
:100C90004FEA410212F5001215D211D56FF47873A4
:100CA000B3EB625212D94FEAC12343F0004343EA47
:100CB000505311F0004F23FA02F018BF4042704722
:100CC0004FF00000704750EA013005D111F00040AC
:100CD00008BF6FF0004070474FF00000704700BF42
:100CE00053B94AB9002908BF00281CBF4FF0FF3193
:100CF0004FF0FF3000F0E2B8ADF1080C6DE904CE22
:100D000007F0A8FBDDF804E0DDE9022304B070473A
:100D100000F1340191E838009C46A6464CF8045D89
:100D200090E8FF0FE54600BD90EC210B704700BF37
:100D300080EC210B704700BF90EC200B704700BF88
:100D400080EC200B704700BFD0EC200B704700BF39
:100D5000C0EC200B704700BFF0EC0201F0EC021178
:100D6000F0EC0221F0EC0231F0EC0241F0EC025127
:100D7000F0EC0261F0EC0271F0EC0281F0EC029117
:100D8000F0EC02A1F0EC02B1F0EC02C1F0EC02D107
:100D9000F0EC02E1F0EC02F1704700BFE0EC020180
:100DA000E0EC0211E0EC0221E0EC0231E0EC024167
:100DB000E0EC0251E0EC0261E0EC0271E0EC028157
:100DC000E0EC0291E0EC02A1E0EC02B1E0EC02C147
:100DD000E0EC02D1E0EC02E1E0EC02F1704700BF90
:100DE000B0FC0181B0FC0191B0FC01A1B0FC01B1EB
:100DF000704700BFA0FC0181A0FC0191A0FC01A1F3
:100E0000A0FC01B1704700BFEC4600B52DE90050D1
:100E10002DE9FF1F4FF000032DE90C0001A907F099
:100E2000E1FDDDF840E012B0704700BFEC4600B5D0
:100E30002DE900502DE9FF1F4FF000032DE90C00B4
:100E400001A907F00FFEDDF840E012B0704700BFC7
:100E5000EC4600B52DE900502DE9FF1F4FF00003CF
:100E60002DE90C0001A907F01FFEDDF840E012B0EB
:100E7000704700BFEC4600B52DE900502DE9FF1F7B
:100E80004FF000032DE90C0001AB07F0DFFDDDF8AA
:100E900040E012B0704700BFEC4600B52DE90050AD
:100EA0002DE9FF1F4FF000032DE90C0001AA07F008
:100EB00051FEDDF840E012B0704700BF704700BF40
:100EC00010B5054C237833B9044B13B10448AFF384
:100ED00000800123237010BDD00900200000000015
:100EE000C494000808B5034B1BB103490348AFF392
:100EF000008008BD00000000D4090020C494000850
:100F0000084B094A1A60094B094A1A60094B1B68C9
:100F10005A6942F001025A61DA6842F02002DA604E
:100F2000704700BFEC090020F4090020F009002000
:100F30003C0A0020D80B00200B6C013303F03F0368
:100F40004A6C9A4202D00A6C88540B64704738B5D8
:100F500004460D4601F020FB002300E00133217818
:100F6000EA5C9142FAD1002201E00132013314F827
:100F700002C0E95C8C45F8D0824202D04FF0FF30CD
:100F800038BD0120FCE70000084B1B68196C5A6C47
:100F9000914207D05A6C985C5A6C013202F03F02C1
:100FA0005A6470474FF0FF30704700BFEC090020D3
:100FB000002813DB0A4B19680A6C013202F03F0269
:100FC0004B6C9342FCD00B6CC854054B1B681A64E5
:100FD000044B1A68D36843F08003D360704700BFA6
:100FE000F0090020D80B0020034B1B68186C5B6CC9
:100FF000C01A00F03F007047EC09002010B504460D
:1010000002E00134FFF7D4FF20780028F9D110BDA9
:101010002DE9F04107460E4614461D4601F0BCFA84
:101020008046304601F0B8FA4FF0000C0EE04FF069
:10103000000E17F80E2014F80C309A4204D10EF16D
:10104000010E0CF1010CF4E7C64507D03A7814F80C
:101050000C309A42EBD00CF1010CF7E7E6460BE0BE
:10106000002302E001330EF1010EF15C14F80E20B2
:101070009142F7D0834207D0327814F80E309A426A
:10108000EED00EF1010EF7E7AEEB000E0023F445B3
:1010900006DA14F80C20EA5401330CF1010CF6E7DF
:1010A000BDE8F08110B5054C40220021206801F018
:1010B00081F9236800221A6410BD00BFEC090020EA
:1010C000054B1B68196C5A6C914202D05A6C985CA3
:1010D00070474FF0FF307047EC0900202DE9F843CE
:1010E00005460E4601F058FA07460024FFF77CFF3C
:1010F0000028FBD0FFF7E4FF2B78984210D0164B66
:101100001A68516C525C32551A68536C013303F003
:101110003F0353640134FFF767FF0028FBD0E9E782
:101120004FF00008FFF7CCFF15F8083098420ED1B9
:1011300008F10108FFF728FF04F101093055474580
:1011400007D0FFF751FF0028FBD04C46EAE7B8452F
:10115000CCD10120BDE8F883EC09002070B505462C
:1011600001F01AFA0646FFF73FFF0028FBD0FFF711
:10117000A7FF2B78984207D00D4B1A68536C0133A8
:1011800003F03F035364F2E70024FFF799FF2B5D60
:10119000984209D10134FFF7F7FEA64206D0FFF7C7
:1011A00023FF0028FBD0F0E7B442DCD1012070BD62
:1011B000EC09002070B504460D4616462046FFF7A0
:1011C000CDFF0128FAD10024A54208DDFFF70CFF6E
:1011D0000028FBD0FFF7D8FE30550134F4E701209A
:1011E00070BD000008B503681A68D96812F0200FB6
:1011F00002D011F0200F06D112F0800F02D011F0B2
:10120000800F08D108BD1A6858680E4B1968C0B223
:10121000FFF792FEF6E70C4A116C526C91420BD02C
:10122000094A536CD15C536C013303F03F035364A0
:1012300003681A685960E5E7DA6822F08002DA602C
:10124000E0E700BFEC0900203C0A0020002300E09A
:10125000013303EB4312825C002AF9D1581C70471A
:1012600070B594B004460D461646FFF749FE28486F
:10127000FFF7C4FE4FF4FA6000F0E0FAFFF712FF48
:101280002448FFF7BBFE2448FFF768FF0028FAD088
:10129000FFF708FF2148FFF7B1FE1F48FFF75EFF89
:1012A0000028FAD0FFF7FEFE32461D49684601F0DD
:1012B000D3F86846FFF7A2FE1748FFF74FFF002854
:1012C000FAD0FFF7EFFE2B4622461649684601F09A
:1012D000C3F86846FFF792FE0F48FFF73FFF00286C
:1012E000FAD0FFF7DFFE1048FFF788FE0A48FFF745
:1012F00035FF0028FAD0FFF7D5FE0C48FFF77EFE39
:101300000548FFF72BFF0028FAD014B070BD00BFCE
:10131000E0940008EC940008F4940008FC940008A1
:101320000C9500082095000838950008489500089D
:1013300070B594B005460C4601F02EF90646FFF74D
:10134000B1FE334622461349684601F085F86846E7
:10135000FFF754FE1048FFF701FF0028FAD0284697
:10136000FFF74CFE0D48FFF7F9FE0028FAD0FFF713
:1013700099FE22460A49684601F06EF86846FFF772
:101380003DFE0848FFF7EAFE0028FAD0012014B01D
:1013900070BD00BF5C950008249700087095000898
:1013A00078950008F49400082DE9F041ADF5C05D92
:1013B00082B0044688460021CDF8081840F6FC7239
:1013C0000DF60C0000F0F6FF34492046FEF7A0FEB3
:1013D000B8B133492046FEF79BFE0546002850D1A0
:1013E000304B19680DF6080001F036F82E4B1968DD
:1013F0000DF6080001F052F82C48FFF727FF0746CA
:1014000022E02B4B19680DF6080001F025F8414643
:101410000DF60800FFF78CFF2EE0244E05EB451279
:1014200002F10803334402F11804344406340094F2
:10143000073332441F4902A801F00EF802A90DF645
:10144000080001F02BF80135BD42E6DB0DF608047B
:10145000204601F0A1F802462518174B03CBA050F7
:1014600069601B782B72154B1968204601F016F83D
:1014700041462046FFF75CFF0DF5C05D02B0BDE8B8
:10148000F0810F4B19680DF6080000F0E5FF4146AA
:101490000DF60800FFF74CFFEEE700BF8C95000843
:1014A000949500080800002010000020840A002005
:1014B000040000209C950008C09500080C00002046
:1014C0000000002070B5A2B0002102917C2203A888
:1014D00000F070FF0DF1070201213548FFF76AFEA9
:1014E0000028F7D09DF80730303B8DF8073002A96F
:1014F0003048FFF7F3FD0028F9D002A92E48FFF786
:1015000026FD012817D002A92C48FFF720FD01284D
:1015100041D002A92A48FFF71AFD012841D002A9AB
:101520002848FFF714FD012833D09DF807102648FE
:10153000FFF73AFF2DE0254D254C236803EB4313BD
:10154000244E2B4402AA31462348FFF761FD23684D
:1015500003EB431308332B44073302AA31461F48D9
:10156000FFF756FD236803EB431318332B44063370
:1015700002AA1B491B48FFF74BFD23680133236078
:10158000092B01DD002222609DF807100A48FFF7B1
:101590000BFF22B070BD9DF807100848FFF704FF4D
:1015A000F7E79DF807100648FFF7FEFEF1E700BFDA
:1015B000CC950008D49500088C95000894950008F7
:1015C000049600080C9600081C960008840A002067
:1015D000D00B0020E0950008E4950008EC95000889
:1015E000F4950008FC95000882B00E4B9A6942F011
:1015F00001029A619A6902F001020092009ADA6986
:1016000042F08052DA61DB6903F080530193019B61
:10161000054A536823F0E06343F00073536002B05F
:10162000704700BF001002400000014030B587B095
:101630000023029303930493059302681B4B9A4281
:1016400001D007B030BD03F558439A6942F4804297
:101650009A619A6902F480420092009A9A6942F073
:1016600004029A619B6903F004030193019B4FF408
:101670000073029302230393032305930C4D02A9E5
:10168000284600F01FFC4FF480630293002403946B
:10169000049402A9284600F015FC22462146252084
:1016A00000F03CFD252000F071FDCAE70038014044
:1016B0000008014010B504460268136923F4405342
:1016C000C1680B43136183680269134342691A437B
:1016D0000168CB6823F4B05323F00C031343CB60B1
:1016E0000268536923F4407381690B4353610268B4
:1016F000134B9A4220D000F0C5FB024602EB820257
:1017000002EB820263689B00B2FBF3F20D48A0FB80
:1017100002314909642303FB11231B013233A0FB6F
:1017200003235B0903F0F00202EB011203F00F0345
:10173000216813448B6010BD00F0B4FB0246DDE766
:10174000003801401F85EB5158B310B5044690F89E
:1017500039300BB3242384F839302268D36823F45A
:101760000053D3602046FFF7A5FF2268136923F4D6
:10177000904313612268536923F02A03536122685E
:10178000D36843F40053D3600020E063202384F83F
:10179000393084F83A3010BD80F83830FFF746FF12
:1017A000D8E701207047000010B504460E4B1878AA
:1017B0004FF47A73B3FBF0F30C4A1068B0FBF3F00C
:1017C00000F0F2FC68B90F2C01D901200AE00022D8
:1017D00021464FF0FF3000F0A1FC054B1C600020BB
:1017E00000E0012010BD00BF140000201C000020FC
:1017F0001800002008B5074A136843F0100313606F
:10180000032000F079FC0020FFF7CEFFFFF7ECFE8D
:10181000002008BD00200240034B1B78034A1168DA
:101820000B441360704700BF14000020D40B00204D
:10183000014B1868704700BFD40B002038B5044630
:10184000FFF7F6FF0546B4F1FF3F02D0044B1B78CB
:101850001C44FFF7EDFF401BA042FAD338BD00BF88
:101860001400002082B0084B1B68084AA2FB032327
:101870005B0A00FB03F3019300BF019B5A1E019218
:10188000002BF9D102B070471C000020D34D62102C
:10189000002800F0ED8170B582B00446036813F0B3
:1018A000010F2CD0994B5B6803F00C03042B1DD067
:1018B000964B5B6803F00C03082B12D06368B3F5FA
:1018C000803F41D0002B55D103F1804303F5043311
:1018D0001A6822F480321A601A6822F480221A6090
:1018E00037E08A4B5B6813F4803FE7D0874B1B6877
:1018F00013F4003F03D06368002B00F0BB81236822
:1019000013F0020F75D0814B5B6813F00C0F5FD0A2
:101910007E4B5B6803F00C03082B54D02369002B2B
:1019200040F081807A4B00221A60FFF781FF054664
:10193000764B1B6813F0020F5BD0FFF779FF401B5B
:101940000228F5D903209AE1704A136843F48033E2
:101950001360636843B3FFF76BFF05466B4B1B686F
:1019600013F4003FCBD1FFF763FF401B6428F5D988
:10197000032084E1B3F5A02F09D0644B1A6822F448
:1019800080321A601A6822F480221A60E1E703F1BB
:101990008043A3F53C331A6842F480221A601A6827
:1019A00042F480321A60D4E7FFF742FF0546574BF6
:1019B0001B6813F4003FA2D0FFF73AFF401B6428D6
:1019C000F5D903205BE1514B5B6813F4803FA5D14F
:1019D0004E4B1B6813F0020F03D02369012B40F01C
:1019E0004B814A4A136823F0F803616943EAC10353
:1019F0001360236813F0080F33D0A369002B5CD069
:101A0000434B0122C3F88024FFF712FF05463F4BEA
:101A10005B6A13F0020F21D1FFF70AFF401B022877
:101A2000F5D903202BE13A4B01221A60FFF700FFA2
:101A30000546364B1B6813F0020F06D1FFF7F8FE80
:101A4000401B0228F5D9032019E1304A136823F01E
:101A5000F803616943EAC1031360CAE70120FFF795
:101A600001FF236813F0040F00F09680274BDB6919
:101A700013F0805F34D1254BDA6942F08052DA618D
:101A8000DB6903F080530193019B0125214B1B6807
:101A900013F4807F26D0E368012B3DD0002B53D177
:101AA00003F1804303F504331A6A22F001021A623B
:101AB0001A6A22F004021A6233E0154B0022C3F8BE
:101AC0008024FFF7B5FE0546104B5B6A13F0020F4A
:101AD000C7D0FFF7ADFE401B0228F5D90320CEE0AA
:101AE0000025D3E70B4A136843F480731360FFF7B4
:101AF0009FFE0646074B1B6813F4807FCBD1FFF790
:101B000097FE801B6428F5D90320B8E0001002403E
:101B100000004242007000405F4A136A43F0010334
:101B20001362E36833B3FFF783FE06465A4B1B6A22
:101B300013F0020F2FD1FFF77BFE801B41F2883399
:101B40009842F3D903209AE0052B09D0524B1A6A28
:101B500022F001021A621A6A22F004021A62E0E715
:101B60004D4B1A6A42F004021A621A6A42F00102EC
:101B70001A62D6E7FFF75CFE0646474B1B6A13F076
:101B8000020F08D0FFF754FE801B41F288339842C1
:101B9000F3D9032073E0E5B9E369002B6ED03E4A28
:101BA000526802F00C02082A52D0022B17D03B4B8D
:101BB00000221A66FFF73CFE0446374B1B6813F001
:101BC000007F60D0FFF734FE001B0228F5D9032008
:101BD00055E0314AD36923F08053D361DCE72F4BC2
:101BE00000221A66FFF724FE05462B4B1B6813F0F4
:101BF000007F06D0FFF71CFE401B0228F5D903200A
:101C00003DE0236AB3F5803F1AD023494B6823F4A3
:101C10007413226A606A024313434B601F4B012214
:101C20001A66FFF705FE04461B4B1B6813F0007F86
:101C300027D1FFF7FDFD001B0228F5D903201EE088
:101C4000154A536823F40033A1680B435360DCE763
:101C5000012B1AD0104B5B6803F48031226A914249
:101C600015D103F47013626A934212D1002006E08A
:101C700001207047012002E0012000E0002002B0B6
:101C800070BD0020FBE70020F9E70120F7E7012005
:101C9000F5E70120F3E700BF0010024000004242D8
:101CA00086B0164B0FCB0DF1180C0CE90F0040F26B
:101CB0000123ADF80430124B5B6803F00C02082AD4
:101CC00002D0104806B07047C3F38342624412F852
:101CD000100C13F4803F0CD0094B5B68C3F34043F6
:101CE000634413F8143C074A02FB00F0B0FBF3F026
:101CF000E8E7054B03FB00F0E4E700BFCC9B0008DE
:101D00000010024000127A0000093D00002800F097
:101D1000A08070B50D460446524B1B6803F00703C4
:101D20008B420BD24F4A136823F007030B43136017
:101D3000136803F007038B4240F08D80236813F093
:101D4000020F17D013F0040F04D0474A536843F42E
:101D5000E0635360236813F0080F04D0424A5368CD
:101D600043F460535360404A536823F0F003A16882
:101D70000B435360236813F0010F31D06368012BCC
:101D800020D0022B25D0384A126812F0020F64D0FE
:101D900035494A6822F0030213434B60FFF748FDC0
:101DA0000646314B5B6803F00C036268B3EB820FAD
:101DB00016D0FFF73DFD801B41F288339842F0D9E1
:101DC000032045E0284A126812F4003FE0D10120C8
:101DD0003EE0254A126812F0007FD9D1012037E099
:101DE000204B1B6803F00703AB420AD91D4A136856
:101DF00023F007032B431360136803F00703AB4280
:101E00002DD1236813F0040F06D0174A536823F42A
:101E1000E063E1680B435360236813F0080F07D0B9
:101E2000114A536823F46053216943EAC1035360A4
:101E3000FFF736FF0C4B5B68C3F303130B4AD35C0D
:101E4000D8400B4B18600B4B1868FFF7ADFC002017
:101E500070BD012070470120FAE70120F8E701205A
:101E6000F6E700BF0020024000100240E09B00089F
:101E70001C00002018000020014B1868704700BFAC
:101E80001C00002008B5FFF7F7FF044B5B68C3F3A5
:101E90000223034AD35CD84008BD00BF00100240B3
:101EA000F09B000808B5FFF7E7FF044B5B68C3F33E
:101EB000C223034AD35CD84008BD00BF00100240D3
:101EC000F09B000870B582B00024A446A7E0814DC5
:101ED000AA4210D007D9804DAA420CD005F5803512
:101EE000AA4208D013E0A5F58015AA4203D005F553
:101EF0007025AA4207D18A68002A58D0012A51D0F9
:101F00004361082403E0A5F58015AA42F3D0BEF191
:101F1000FF0F4ED80646BEF1FF0F4CD84FEA8C0299
:101F200033680F25954023EA050304FA02F21343B0
:101F300033604B6813F0805F6FD0684B9A6942F052
:101F400001029A619B6903F001030193019B4FEA2F
:101F50009C02951C624B53F825300CF00305AD0034
:101F60000F26AE4023EA06035E4EB04229D006F5A6
:101F70008066B04200F0908006F58066B04200F0C6
:101F80008D8006F58066B04219D004261AE0CC6830
:101F9000BDE7CC680434BAE7CC680834B7E7CC684E
:101FA0000C34B4E703610824B1E70024AFE704244C
:101FB000ADE7061DAFE7ACF108029200B0E70326DB
:101FC00000E0002606FA05F52B430232444D45F8A1
:101FD00022304B6813F4803F62D0434A136843EACF
:101FE0000E0313604B6813F4003F5FD03E4A536802
:101FF00043EA0E0353604B6813F4801F5CD03A4AE7
:10200000936843EA0E0393604B6813F4001F59D0A2
:10201000354AD36843EA0E03D3600CF1010C0A6819
:1020200032FA0CF354D0012303FA0CF302EA030E44
:1020300033EA0202F1D14A68122A3FF648AF122A67
:102040003FF665AF01A555F822F000BFF71E000866
:102050008F1F0008991F0008AB1F00080F1F000802
:102060000F1F00080F1F00080F1F00080F1F000898
:102070000F1F00080F1F00080F1F00080F1F000888
:102080000F1F00080F1F00080F1F00080F1F000878
:10209000931F00089F1F0008012693E7022691E77F
:1020A000114A136823EA0E0313609BE70E4A536834
:1020B00023EA0E0353609EE70B4A936823EA0E035C
:1020C0009360A1E7084AD36823EA0E03D360A4E72C
:1020D00002B070BD0000221000003110001002405C
:1020E0000000014000080140000401400AB1016104
:1020F0007047090401617047074AD36823F4E0631D
:102100001B041B0C000200F4E060034343F0BF63B8
:1021100043F40033D360704700ED00E000B5194B85
:10212000DB68C3F30223C3F1070CBCF1040F28BF23
:102130004FF0040C03F1040EBEF1060F18D9033B57
:102140004FF0FF3E0EFA0CFC21EA0C0199400EFA0A
:1021500003F322EA0303194300280BDB0901C9B288
:1021600000F1604000F5614080F800135DF804FB69
:102170000023E5E700F00F000901C9B2024B195432
:10218000F4E700BF00ED00E014ED00E0002807DBFD
:1021900000F01F02400901239340024A42F8203018
:1021A000704700BF00E100E00138B0F1807F0BD242
:1021B0004FF0E0235861054AF02182F823100020F7
:1021C000986107221A6170470120704700ED00E016
:1021D0007047000030B587B0002402940394049443
:1021E0000594144B9A6942F010029A619A6902F0C0
:1021F00010020092009A9A6942F004029A619B6967
:1022000003F004030193019B0B4D22464FF4005150
:102210002846FFF76BFF4FF400530293012303930B
:1022200004940223059302A92846FFF74BFE07B04A
:1022300030BD00BF001002400010014072B6FEE742
:1022400008B50A480A4B03604FF4E13343600023AA
:102250008360C36003610C2242618361C361FFF745
:1022600073FA00B908BDFFF7E9FF00BFD80B0020E3
:102270000038014000B591B02822002106A800F0E6
:1022800099F8002301930293039304930593022387
:10229000069301230A9310230B9306A8FFF7F8FA7D
:1022A00068B90F23019300210291039104910591D4
:1022B00001A8FFF72BFD20B911B05DF804FBFFF773
:1022C000BDFFFFF7BBFF000008B5FFF793FAFFF76C
:1022D000D1FFFFF77FFFFFF7B3FF044A044905482A
:1022E000FEF7BEFFFFF7EEF8FCE700BFF89B000823
:1022F000049C0008109C0008FEE7FEE7FEE7FEE7EE
:10230000FEE770477047704708B5FFF785FA08BDCC
:1023100008B50248FEF766FF08BD00BFD80B0020D5
:10232000002103E00B4B5B58435004310A480B4B30
:1023300042189A42F6D30A4A02E0002342F8043BCC
:10234000084B9A42F9D3FFF743FF00F00FF8FFF76D
:10235000BBFF704794A3000800000020D0090020B4
:10236000D0090020640C0020FEE7000070B50D4E7F
:102370000D4D761BB61006D0002455F8043B0134F1
:102380009847A642F9D1094E094D07F09BF8761BF4
:10239000B61006D0002455F8043B01349847A642F5
:1023A000F9D170BD88A3000888A3000890A3000895
:1023B00088A30008830730B548D0541E002A3FD0B8
:1023C0000346CAB201E0013C3AD303F8012B9D0752
:1023D000F9D1032C2DD9CDB245EA05250F2C45EABC
:1023E000054536D9A4F1100222F00F0C03F1200E9E
:1023F000E6444FEA121C03F1100242E9045542E997
:10240000025510327245F8D10CF1010214F00C0F94
:1024100003EB021204F00F0C13D0ACF1040323F011
:1024200003030433134442F8045B9342FBD10CF0E2
:1024300003042CB1CAB21C4403F8012B9C42FBD10B
:1024400030BD64461346002CF4D1F9E70346144628
:10245000BFE71A46A446E0E70EB430B504466FF075
:1024600000459CB00B4A1FAB0B49059253F8042B57
:10247000086802A9CDE9013407950495069400F097
:10248000B9F80022029B1A701CB0BDE8304003B0BE
:10249000704700BF0802FFFF20000020830710B52F
:1024A000044610D10268A2F1013323EA020313F0BB
:1024B000803F08D150F8042FA2F1013323EA020330
:1024C00013F0803FF6D003781BB110F8013F002BCA
:1024D000FBD100F003F8204610BD00BF80EA0102E6
:1024E000844612F0030F4FD111F0030F32D14DF893
:1024F000044D11F0040F51F8043B0BD0A3F101324D
:102500009A4312F0803F04BF4CF8043B51F8043B5F
:1025100016D100BF51F8044BA3F101329A4312F0D7
:10252000803FA4F101320BD14CF8043BA24312F0DE
:10253000803F04BF51F8043B4CF8044BEAD02346DB
:102540000CF8013B13F0FF0F4FEA3323F8D15DF88D
:10255000044B704711F0010F06D011F8012B0CF855
:10256000012B002A08BF704711F0020FBFD031F8CD
:10257000022B12F0FF0F16BF2CF8022B8CF8002054
:1025800012F47F4FB3D1704711F8012B0CF8012BD7
:10259000002AF9D1704700BF20F0030110F00300BA
:1025A000C0F1000051F8043B00F1040C4FEACC0CE0
:1025B0006FF000021CBF22FA0CF213434FF0010C23
:1025C0004CEA0C2C4CEA0C4CA3EB0C0222EA030262
:1025D00012EACC1204BF51F8043B0430F4D0C2F12B
:1025E000000102EA0102B2FA82F2C2F11F0200EB1C
:1025F000D20070472DE9F04FD5B00C460C919146B2
:102600000E930A9002F0B4FE036818461793FFF782
:10261000C3FFA3891690190603D52369002B00F088
:102620008F8700242BAB224698464D46CDE929449E
:102630002893129400230024CDE914342B78CDE99B
:102640001922CDE91B2218920892002B00F0CE81AE
:10265000AA4604E01AF8013F002B00F00981252B5F
:10266000F8D1BAEB050640F007819AF80030002B4C
:1026700000F0BC8100234FF0FF324FF02B092024E3
:102680001F469AF8016007920AF1010A8DF883301B
:1026900009930AF1010AA6F120035A2B00F22081C6
:1026A000DFE813F0CA021E011E01C5021E011E0151
:1026B0001E01A3021E011E016A00F3021E01470251
:1026C000D9021E01D4025B005B005B005B005B0073
:1026D0005B005B005B005B001E011E011E011E0112
:1026E0001E011E011E01B0011E010B027A00B00185
:1026F000B001B0011E011E011E011E019E021E013D
:102700001E01B6001E011E011E0119021E014C020F
:102710001E011E013F071E011E011E011E011E019A
:102720001E011E011E01B0011E010B027C00B00142
:10273000B001B00191027C0075001E0184021E01EF
:102740007002B8005E0275001E01190272001C07BB
:102750001E011E011F071E0172000022A6F1300398
:102760001AF8016B02EB820203EB4202A6F130037E
:10277000092BF5D909928EE70E9B53F8042B002AFA
:1027800009920E93C0F2D2819AF8006081E79AF81C
:10279000006047F020077CE747F01007BA060E9B61
:1027A00040F17D81073323F007031A465B6852F836
:1027B000084B99460E92002BC0F27F85079B013390
:1027C00001F0398054EA090327F0800B00F00585F9
:1027D0000A2C79F1000380F0938701235F4630349F
:1027E0008DF84F410B930DF24F15079A0B9900236B
:1027F0008A42B8BF0A4606929DF883200D930F9334
:1028000013931093002A7CD0069B0133069378E043
:1028100047F0100717F0200900F032810E9B0733B4
:1028200023F00703D3F8049053F8084B0E930023CA
:1028300027F4806B00228DF88320079A511C00F04A
:102840002A8254EA09012BF0800740F02382002AF3
:1028500041F02B80002B40F0C5841BF001030B934B
:1028600000F0548530230DF24F158DF84F31BCE741
:10287000BAEB050600F0BA802A9BC8E9005633443B
:102880002A93299B0133072B299305DC08F10808BB
:10289000089B33440893E8E60C990A9828AA03F0A9
:1028A000B1FC80B90DF1AC08F2E70C990A9828AA9E
:1028B00003F0A8FC002800F08A800D9B1BB10D9945
:1028C0000A9802F055FC0C9B9B8913F0400F089B63
:1028D00018BF4FF0FF330893089855B0BDE8F08F4C
:1028E000002E00F08380012300228DF8EC60069317
:1028F0003BAD8DF883200B930D9207920F921392AC
:10290000109217F0020302D006990231069117F0D7
:10291000840B07D109990698A1EB0009B9F1000FC2
:1029200000F336832A9C82B10122C8F80420299A38
:10293000013401320DF18301072A2A942992C8F843
:10294000001000F3698308F108087BB10223C8F87E
:102950000430299B0234013321AA072B2A9429939E
:10296000C8F8002000F36C8308F10808BBF1800F61
:1029700000F02E82079B0B9AA3EB020BBBF1000F1A
:1029800000F37182FB0500F1C5810B9BC8F8005074
:102990001C44C8F80430299B2A940133072B29933F
:1029A00000F3EA8208F108087B0705D5099B069A1F
:1029B0009D1A002D00F35083DDE9083206998A4202
:1029C000ACBF9B185B180893002C7FF46EAF0023FC
:1029D00029930D9B1BB10D990A9802F0C9FB55462E
:1029E0000DF1AC082B78002B7FF432AE2A9B002B24
:1029F0003FF469AF0C9C0A98214628AA03F002FC18
:102A0000A38962E70E9B073323F00702F2E8023442
:102A1000CDE91434DDE9143424F000449946184615
:102A20000E9221464FF0FF32B64BFEF71BF90028FD
:102A300040F09684484621464FF0FF32B14BFEF7F6
:102A4000F3F8002840F08C84DDE914010022002313
:102A5000FEF7E0F8002840F0A6879DF883200021CB
:102A60000320A94DA94B27F080070D910690472E12
:102A7000C8BF1D4607910B900F9113911091C1E6AD
:102A800017F0100340F0628417F0400200F07B87DB
:102A90000E9A994652F8044B0E92A4B2C7E653F828
:102AA000044B0E93FB0600F141847D0640F13B840C
:102AB00044F3C0394B4624B27DE6012000220E9B30
:102AC000069053F8041B3BAD8DF883208DF8EC1075
:102AD0000E930B9010E74FF000090E9C079B54F8E3
:102AE000045B8DF88390002D00F0EE865A1C00F0F8
:102AF00060851A464946284602F00EFF0D900028D0
:102B000001F09E800D9B9DF883205B1B0B9323EAB5
:102B1000E373CDF81C900E940693CDF83490CDF865
:102B20003C90CDF84C90CDF840906BE6099B5B4211
:102B300009939AF8006047F00407AAE547F0100BE4
:102B40001BF0200900F0AA830E9B073323F0070334
:102B50001A4652F8084BD3F804900E92012369E606
:102B6000302278260E9B8DF8842053F8044B684A57
:102B70000E934FF00009022347F0020B8DF8856099
:102B8000189257E6BD0600F1D683FC0600F1938645
:102B9000780600F15D87B90540F18D860E9B089996
:102BA00053F8042B554611700E931BE79AF80060FA
:102BB0006C2E03BF9AF8016047F020070AF1010A62
:102BC00047F0100765E59AF80060682E03BF9AF891
:102BD000016047F400770AF1010A47F0400758E521
:102BE0009AF8006047F0080753E50A9E304602F065
:102BF000BFFB436818461B93FFF7CEFC03463046E5
:102C00001C931E4602F0B4FB83681993002E3FF418
:102C1000BBAD199B002B3FF4B7AD199B1B78002B64
:102C20003FF4B2AD9AF8006047F4806731E59AF856
:102C3000006047F001072CE59DF88330002B7FF4FE
:102C4000A3AD9AF800608DF8834022E59AF8006001
:102C500047F080071DE5524612F8016B2A2E01F05D
:102C6000EB81A6F13003092B924698BF002201F2B6
:102C700003801AF8016B02EB820203EB4202A6F119
:102C80003003092BF5D9079205E59AF800608DF815
:102C90008390FEE4BB46012B3FF49AAD022B54AD6A
:102CA00012D1189A04F00F03D35C240944EA097482
:102CB0004FEA191905F8013D54EA0903F2D154AB62
:102CC0005B1B5F460B9390E504F00703E40844EABE
:102CD00049744FEAD909303354EA09012A4605F804
:102CE000013DF1D11BF0010FE9D0302BE7D03023AB
:102CF000023A05F8013C54AB9B1A5F4615460B930C
:102D000073E500BFFFFFEF7F289C00082C9C0008A4
:102D1000389C0008652E40F3E980DDE914010022AB
:102D20000023FDF76DFF002800F0D2810123C8F8D1
:102D30000430299BBF4A01330134072B2A9429937D
:102D4000C8F8002000F37A8508F10808229B129A3F
:102D5000934280F2D782169B179A1C44C8E900233D
:102D6000299B2A940133072B299300F3DD8308F173
:102D70000808129B5D1E002D7FF716AE102D41F343
:102D80004181DFF8B492224649461026B946299B74
:102D90000F46DDF828B00C9C05E008F10808103D4E
:102DA000102D40F3588501331032072BC8E9007607
:102DB000CDE92932F1DD2146584628AA03F022FA4E
:102DC00000287FF47AADDDE929320DF1AC08E6E7A1
:102DD000099B069AA3EB020BBBF1000F7FF7CAAD6C
:102DE000BBF1100F41F30580DFF84C9220464146BD
:102DF0004C46A8461023299A0C9DDDF8289006E041
:102E0000ABF1100BBBF1100F01F1080119DD01321C
:102E10001030072AC1E90043CDE92920F0DD294619
:102E2000484628AA03F0EEF900287FF446ADDDE914
:102E30002920ABF1100BBBF1100F4FF010032BA9A1
:102E4000E5DC4546A1468846044601325C44072A33
:102E5000CDE92924C8F80090C8F804B000F318851B
:102E600008F1080886E5BBF1100F40F39785DFF8FD
:102E7000C891204641464C46A8461023299A0C9DED
:102E8000DDF8289006E0ABF1100BBBF1100F01F15B
:102E9000080119DD01321030072AC1E90043CDE9EC
:102EA0002920F0DD2946484628AA03F0ABF900287E
:102EB0007FF403ADDDE92920ABF1100BBBF1100F5E
:102EC0004FF010032BA9E5DC4546A1468846044691
:102ED00001325C44072ACDE92924C8F80090C8F8DB
:102EE00004B000F3CE8108F108084BE5129B012BDA
:102EF00040F37E810123299E01341E44072EC8F829
:102F000000502A94C8F80430299600F3E18108F1B2
:102F10000808169B0136179A1C44072EC8E900239F
:102F2000CDE9296400F3E18108F108080022DDE918
:102F300014010023FDF764FE002840F07681129B07
:102F40000136013B01351C44072EC8F80050299674
:102F5000C8F804302A9400F35B8108F108081A9B32
:102F600001361C44C8F80430072E24ABCDE929648F
:102F7000C8F800307FF716AD0C990A9828AA03F01C
:102F800041F900287FF499AC2A9C0DF1AC080BE5BF
:102F9000B9F1100F40F35086DDE929214046CDE913
:102FA0001D36B84610244F460C9EA9460A9D04E0E3
:102FB000103F102F00F1080016DD01321F4B1031B9
:102FC000072AC0E90034CDE92921F1DD3146284640
:102FD00028AA03F017F900287FF46FACDDE9292156
:102FE000103F102F2BA8E8DC4D46DDE91D36B94611
:102FF0004746804609EB010401321049072ACDE912
:103000002924C8F80490C8F8001000F3C3839DF881
:10301000832008F1080886E40C990A9828AA1D93D1
:1030200003F0F0F800287FF448AC2A9C1D9B0DF1BA
:10303000AC088AE4689C00087C9C00086C9C000832
:103040000C990A9828AA03F0DDF800287FF435AC23
:103050002A9C0DF1AC0889E4102D40F3C48610269B
:10306000299B0A9FDDF8309004E0103D102D08F1F7
:10307000080817DD0133B84A1034072BC8E90026C9
:10308000CDE92934F1DD4946384628AA03F0BAF8DB
:1030900000287FF412ACDDE92934103D102D0DF12C
:1030A000AC08E7DC0133AC4A2C44072BCDE92934CA
:1030B000C8F80450C8F800207FF77EAC0C990A9835
:1030C00028AA03F09FF800287FF4F7AB2A9C73E44A
:1030D0002299002940F36F83DDF84090129B9945B7
:1030E000A8BF9946B9F1000F0BDD299B4C44013371
:1030F000072BC8E900592A94299300F31D8508F18C
:103100000808109EB9F1000FA8BFA6EB0906002E13
:1031100000F32582DDF840B07805AB4400F15F8212
:10312000229B129A934202DBF90740F17684169AA9
:1031300017991444C8E90012299A2A940132072ADF
:10314000299200F3138508F10808129AAE18A6EB2D
:103150000B06D51AAE42A8BF2E46002E0DDD299BC8
:1031600034440133072BC8F800B0C8F804602A942F
:10317000299300F3718508F10808002EA8BFAD1B44
:10318000002D7FF711AC102D40F33C87DFF8CC9178
:10319000224649461026B946299B0F46DDF828B03D
:1031A0000C9C05E008F10808103D102D40F35383F6
:1031B00001331032072BC8E90076CDE92932F1DD61
:1031C0002146584628AA03F01DF800287FF475AB65
:1031D000DDE929320DF1AC08E6E7079B002B7FF40F
:1031E000FCAA5F46002354AD07930B93FFF7FDBA8B
:1031F000FA073FF57FAE0123299E01341E44072EB6
:10320000C8F800502A94C8F8043029967FF7A5AE74
:103210000C990A9828AA02F0F5FF00287FF44DAB1C
:10322000DDE929640DF1AC0899E6129B5D1E002DC5
:103230007FF795AE102D40F3DF86224607974FF0BB
:10324000100BDFF818910A9C0C9F05E008F10808A4
:10325000103D102D40F37F8301361032072EC8E950
:10326000009BCDE92962F1DD3946204628AA02F00B
:10327000C9FF00287FF421ABDDE929620DF1AC081C
:10328000E6E70C990A9828AA02F0BCFF00287FF410
:1032900014AB2A9C0DF1AC08FFF774BB1BF01003B4
:1032A0000E9A3AD11BF0400133D052F8044B9946A4
:1032B0000E920123A4B2FFF7BDBA2D2364428DF80C
:1032C0008330BB464FF0010369EB4909FFF7B5BAFC
:1032D0000C990A9828AA02F095FF00287FF4EDAA1D
:1032E000DDE929640DF1AC0813E60C990A9828AAC7
:1032F00002F088FF00287FF4E0AADDE929640DF1DF
:10330000AC0813E6FD077FF54FAB24E554ADFFF79E
:103310006CBA1BF4007940F08A8352F8044B012305
:103320000E92FFF787BAB80500F19B834FEAE47964
:103330004B46FFF740BA0E9B089853F8041BC21780
:103340005546C1E900020E93FFF74CBB0E9B53F8A4
:10335000044B0E93FFF76BBA6C9C00087C9C000832
:10336000DDE9140102460B46FDF77CFC002840F025
:10337000E985612E00F07D85412E00F08B84079B4E
:10338000013300F08F8326F02003472B069300F0D3
:103390008F85DDE9141247F480730F931346002BD9
:1033A000C0F2B0850B9300238B461D930D93069BB3
:1033B000462B00F0E983452B00F0468507990B9BCF
:1033C00001910221009126A9049123A9039122A928
:1033D0005A460A98029100F0FFFE069B0546472BCD
:1033E00040F03A8617F0010FB9460F9F40F0FE8477
:1033F000269B5B1B1293069B472B00F06E83069B5C
:10340000462B00F0F083229B1093109B069A013B01
:10341000412A229300F0BB850021F2B2002B8DF8E7
:103420009020B6BF2D222B22109B8DF89120B8BF83
:10343000C3F10103092B40F39B850DF19F0C6246FC
:10344000B64F1C46104687FB0312D917C1EBA201E9
:1034500001EB8102A3EB42023032632C00F8012C15
:103460000B4600F1FF32ECDC3033811EDBB28C45C1
:1034700002F8013C40F2F9850DF1920101E012F8E9
:10348000013B944501F8013BF9D10DF1A1030DF188
:1034900092021B1A134424AA9B1A1A93129B1A9A7B
:1034A000012B1A440B9240F381850B9B169A13440F
:1034B0000B9300230B9A29F4806722EAE27247F407
:1034C00080770F930692139310931D9B002B40F06F
:1034D0002C839DF883200793FFF794B9BB46FFF731
:1034E0002FBB8F4B189317F0200900F0F5800E9B2F
:1034F000073323F00703D3F8049053F8084B0E93D7
:10350000F80709D554EA090306D030238DF8856001
:1035100047F002078DF88430022327F4806BFFF711
:1035200089B9804B1893DEE70C990A9828AA02F013
:1035300069FE00287FF4C1A92A9C0DF1AC0818E4AB
:1035400040210A9801F026FF0C9B186018610028A2
:1035500000F0978540230C9A5361FFF762B8102E54
:1035600040F37685DFF8C091214648464246B94689
:10357000A8464FF0100B0746299B0A9C0C9D04E0BF
:103580000832103E102E40F3138201331031072B06
:10359000C2E9007BCDE92931F2DD2946204628AA7F
:1035A00002F030FE00287FF488A9DDE929312BAA3A
:1035B000E7E72846CDF81C900E94FEF7EDFF20EAD1
:1035C000E0739DF883200B90CDF83490CDF83C90BB
:1035D000CDF84C90CDF840900693FFF713B9129BAD
:1035E0004246DDF84C80EB185E460793CDF82CA0E0
:1035F00010972146199FDDF87090DDF828A0DDF8BE
:1036000030B00F9B1395B8F1000F2ED083BB013F54
:1036100008F1FF381B9B4944C2E90039299B2A91D4
:103620000133072B299360DC0832079B38789B1BFA
:103630008342A8BF0346002B1C460BDD2998194482
:1036400001300728C2E900632A91299000F3148110
:1036500038780832002CB4BF0546051B002D0BDC62
:1036600006440F9BB8F1000FD0D1002B00F026824A
:103670000F9B013B0F93CDE7102D40F39D84102449
:10368000299804E0103D102D02F1080216DD0130EA
:10369000254B10310728C2E90034CDE92901F1DDBD
:1036A0005946504628AA02F0ADFD00287FF405A92E
:1036B000DDE92901103D102D2BAAE8DC01301A4B61
:1036C00029440728CDE929015560136000F34182A0
:1036D000387808320644C4E717F0100300F0A080E1
:1036E0000E9B53F8044B0E930AE75946504628AAFE
:1036F00002F088FD00287FF4E0A82A992BAA94E71D
:1037000000230BF480620696CDF82CA0CDF834800F
:103710001E469246DDF8648054AF14E06766666624
:10372000389C00084C9C00087C9C00080023204624
:1037300049460A22FDF7D4FA0A2C79F100031BD37B
:10374000044689462F4620460A2200234946FDF7B3
:10375000C7FA30327D1E013607F8012CBAF1000F8E
:10376000E4D098F800309E42E0D1FF2EDED00A2C43
:1037700079F1000380F0308154AB5B1BDDF82CA0A5
:10378000CDF8648012965F46069EDDF834800B9378
:10379000FFF72BB80C990A9828AA1D9302F032FD66
:1037A00000287FF48AA89DF883202A9C1D9B0DF198
:1037B000AC08FFF7B8B80123C8F80430299BBC4A0D
:1037C00001330134072B2A942993C8F8002000F311
:1037D000178108F10808002940F08680129A07F046
:1037E000010313433FF4E0A8169B17991A19C8E97F
:1037F0000013299B2A920133072B299300F3378169
:1038000008F10808129901338C18072BCDE92934E7
:10381000C8F80050C8F804107FF7C4A8FFF7ACBB85
:1038200017F0400200F0A5800E9A994652F8044B1A
:103830000E92A4B264E6BB46FEF7CABF0C990A9882
:1038400028AA02F0DFFC00287FF437A82A9C0DF19B
:10385000AC08FFF77BBA14463A464F46914601330F
:103860002C44072BC8F80090C8F80450CDE929343F
:103870007FF798A8FFF780BB5946504628AA02F068
:10388000C1FC00287FF419A838782A992BAAE1E610
:103890000C990A9828AA02F0B5FC00287FF40DA81C
:1038A0002A9C0DF1AC08FFF765B8012BBB467FF4ED
:1038B000F5A9FEF792BF0E9B089953F8042B5546C5
:1038C00011600E93FFF78EB8062B294628BF0623FA
:1038D0002A4607950D950693764D0E940B930F91FE
:1038E00013911091FEF78EBF169B17981A19C8E90D
:1038F0000003299B2A920133072B299300F3B780F9
:1039000008F108080029BFF67DAF4E42103180F261
:10391000A98341461024A846DFF89C91DDF828B021
:103920000C9D04E00831103E102E40F3A7820133B5
:103930001032072BC1E90094CDE92932F2DD294686
:10394000584628AA02F05EFC00287EF4B6AFDDE9F6
:1039500029322BA9E7E71446079F01362C44072E8E
:10396000CDE92964C8F80090C8F804507FF7F5AA9B
:103970004EE417F400790E9B66D053F8044B914641
:103980000E93E4B2BCE517F400790E9B57D053F8C0
:10399000044B91460E93E4B2FEF749BF299ADFF833
:1039A0001891FFF795BA2D228DF88320FFF757B8AD
:1039B000454690463A460C464F46914601333444BC
:1039C000072BCDE92934C8F80090C8F804605CDC06
:1039D00008F10808FFF79EBB1C9B1B99ED1A1A46BD
:1039E000284602F0DBFB98F801300BB108F1010822
:1039F000204649460A2200230026FDF771F99FE67A
:103A00000C990A9828AA02F0FDFB00287EF455AF15
:103A100022992A9C0DF1AC08DDE6129AAE18A6EBAD
:103A20000B06D51AAE42A8BF2E46FFF7A6BB52F82A
:103A3000044B894601230E92E4B2FEF7FBBE53F815
:103A4000044B0E93FEF7F3BE53F8044B0E9357E569
:103A50000E9B089953F8042B554611800E93FEF7E0
:103A6000C1BF44F3C0194B4664B2FEF7A4BE0C9923
:103A70000A9828AA02F0C6FB00287EF41EAFDDE9F2
:103A8000293222990DF1AC083CE70C990A9828AA32
:103A900002F0B8FB00287EF410AF2A9C0DF1AC08B0
:103AA000FFF738BB0623079326F02003069370E444
:103AB000689C0008609C00087C9C0008DDE91235C9
:103AC000EB189E42B34619970C46904628BF9B467A
:103AD000DDF82CA0109FFFF723BB229BDA1C10936C
:103AE00002DB079A934204DD023E26F02003069390
:103AF0008BE4109B129A9342C0F2C28019F0010F1E
:103B000000F01D82169A13440B9319F4806F00F095
:103B10001482109B6726002B76DC0B9B23EAE37351
:103B2000069300230F931393CFE42D2200238DF8E7
:103B300083200793FEF768BE0C990A9828AA02F022
:103B400061FB00287EF4B9AE2A9C0DF1AC08FFF7AA
:103B5000D8BA5946504628AA02F054FB00287EF4F1
:103B6000ACAE38782A992BAA06447AE50C990A98C3
:103B700028AA02F047FB00287EF49FAE229B2A9CD5
:103B80000DF1AC08FFF7E1BA07990B9B01910321F6
:103B9000009126A9049123A9039122A95A460A98C3
:103BA000029100F019FB03780546302B00F01682D5
:103BB000229B079AB94613440F9FEC1858460022DF
:103BC00000230B99FDF71CF808B1234611E4269B4E
:103BD000A342BFF40EAC30215A1C26921970269BCA
:103BE0009C42F9D805E4229A002A109240F30E82F2
:103BF000079909F001030B4340F07E816626109B74
:103C00000B9319F4806F88D019990B78FF2B00F073
:103C100025820024109A204604E001300131FF2B58
:103C200000F05981934280F25681D21A4B78002BD2
:103C3000F3D10B780134F2E7DDE92921FFF7DAB996
:103C4000079B9DF883200E9406930B9307900F908B
:103C500013901090FEF7D6BD0C990A9828AA02F08E
:103C6000D1FA00287EF429AE229D129B2A9C0DF1E8
:103C7000AC085D1BFFF781BA00230793FEF70BBD6D
:103C8000129B169A9A18109B0B92002B40F3858179
:103C90006726B6E730238DF8843058238DF88530B9
:103CA000079B47F00204632B00F3C48000233BAD65
:103CB0000D9347F481730F93DDE914121346002B23
:103CC0002746C0F284800B9300238B461D9326F079
:103CD00020030693612E00F01881412E7FF467AB1C
:103CE00022AA58460B9902F021FA00224FF07F5386
:103CF000FCF71EFD02460B46CDE9102300220023EF
:103D0000FCF77EFF08B101232293AD4B0B93079B79
:103D1000CDE912A6CDE91E78DDE91067AB46DDF8E6
:103D20002CA003F1FF39109506E00022002309F1D1
:103D3000FF39FCF765FFE8B90022A24B304639464F
:103D4000FCF7F6FC0F460646FCF7A2FF0446FCF71C
:103D500085FC0B46024639463046FCF731FB1AF823
:103D60000430B9F1FF3FD8464D4606460F460BF8E2
:103D7000013BDAD1304639460022934BA946DDF8A3
:103D800048A0109DCDF84880CDE91001DDF87C8079
:103D9000139E1E9FFCF75CFF80BBDDE91001002233
:103DA000894BFCF72DFF08B1E10727D44B46002BC8
:103DB00006DB302201335B440BF8012B5B45FBD162
:103DC000ABEB0503B94612930F9FFFF714BB26F028
:103DD000200306932D22DDE914349B4604F10043B1
:103DE0001D920B9376E7299BFFF75CB9079BEC18B4
:103DF000E4E6299ADFF8D491FFF727B8129B2693BF
:103E00000B9B1BF8012CD97B5B46914209D13020DA
:103E100003F8010C269B5A1E269213F8012C91429E
:103E2000F6D0392A0BBF0B9A0132927AD2B203F83C
:103E3000012CC5E70A98591C01F0ACFA0546002888
:103E400000F017810D9034E70221009107995A463E
:103E50004C1C26A9049123A9039122A90B9B0A9823
:103E60000194029100F0B8F90546B9462C440F9F21
:103E7000A4E630238DF8843078230FE74546884642
:103E800001333244072BCDE92932C8F80090C8F835
:103E900004607FF7B5AC0C990A9828AA02F0B2F931
:103EA00000287EF40AADDDE929320DF1AC08A9E461
:103EB000079B002B08BF0123079347F480730F93E0
:103EC000159B002BC0F2B680DDF850B00D900B931F
:103ED0001D90FFF773BA1991109213900F940F9AD7
:103EE000139B1C9913440B9A01FB03230B9323EAA6
:103EF000E3730693FFF7E9BA169B6626D3181944B5
:103F00000B917EE600230D9364E722AA58460B9995
:103F100002F00CF900224FF07F53FCF709FC024637
:103F20000B46CDE9102300220023FCF769FE08B1FF
:103F300001232293264B0B93E9E66726EDE5109BC0
:103F40000B93E2E5159B0320002BB8BF2D224FF009
:103F50000003A8BF9DF8832019460D931D4D1E4BED
:103F6000B8BF8DF8832027F080070690FEF77FBD4D
:103F7000002944D130228DF892200DF19302303384
:103F800002F8013B24ABD31A1A93FFF787BA06F164
:103F90000F020121D2B2FFF741BAC3F101031A4463
:103FA00022EAE27367260B920693BAE519F0010F35
:103FB0003FF47FAAFFF779BA2998FFF77FBB00BFCC
:103FC0004C9C0008000030400000E03F7C9C000852
:103FD000389C0008309C0008349C00085846002299
:103FE00000230B99FCF70CFE00287FF4E1AD079B42
:103FF000C3F101032293DCE5DFF89890ADE40DF105
:104000009202BCE7299BDFF88C9028E4079A09F01C
:10401000010959EA020304D10123662606930B9392
:104020007FE5169B662601331A4422EAE2730B925F
:10403000069376E50D90CDE60E9B9AF801609246C8
:1040400053F8042B0E9342EAE2730793FEF721BB69
:10405000299BDFF84090B1E4079C06E700230F930B
:1040600013933CE7DFF82C900AE702231A93FFF73B
:1040700015BA0C998B8943F0400213468A81FEF7EA
:1040800024BC4FF0FF320C2308920A9A1360FEF70B
:1040900023BC00BF7C9C0008024B13B1024802F015
:1040A0005DB9704700000000A55000082DE9F04FF1
:1040B00003690C6985B0A342C0F28980013C01F11B
:1040C0001405A30000F11408019355F8243058F8A2
:1040D000242001338A469A4208EB84018146B2FBD0
:1040E000F3F605EB840702913AD30021AE46404631
:1040F0000A46A34603955EF8045B0468ABB206FB70
:1041000003132D0C190C06FB05119BB2D21A1FFAD2
:1041100084FC94448AB2C2EB144202EB2C421FFA94
:104120008CFC4CEA0243774540F8043B4FEA1141CE
:104130004FEA2242DFD2019B5C4658F80330039DD0
:1041400073B9029B043B984504D307E0984504F1FA
:10415000FF3403D253F80429002AF7D0C9F81040DD
:104160005146484601F0A8FE00282CDB40460023BB
:10417000013655F8041BD0F800C08AB29A1A1FFA0B
:104180008CFE0B0C7244C3EB1C4303EB224392B234
:1041900042EA0342AF4240F8042B4FEA2343E8D2FD
:1041A00058F8242008EB84036AB9043B984504D3EB
:1041B00007E0984504F1FF3403D253F80429002A9C
:1041C000F7D0C9F81040304605B0BDE8F08F0020A8
:1041D00005B0BDE8F08F00BF2DE9F04F904699463D
:1041E000016C99B00446CDE90489259D41B10123B4
:1041F000426C93408B604A6001F008FC002323640A
:10420000B9F1000AB4BF012300232B60764BBCBF79
:104210002AF0004ACDF814A033EA0A0300F0AA807D
:10422000DDE904231046194600220023CDE90A01E6
:10423000FCF7E6FC074670B10123249A1360269B25
:10424000002B00F0E68269481860431E0393039830
:1042500019B0BDE8F08F16AB019317AB0093204661
:10426000DDE90A2301F0EEFE5FEA1A56054640F04A
:104270009780DDE916763E4406F23240202840F36E
:10428000B783C0F140000AFA00FA06F2124028FA99
:1042900000F04AEA0000FCF7D1F90123013E0F9338
:1042A000A1F1F8710022524BFCF78AF848A3D3E938
:1042B0000023FCF73DFA48A3D3E90023FCF782F87A
:1042C000804630468946FCF7C9F945A3D3E9002367
:1042D000FCF72EFA02460B4640464946FCF772F8B8
:1042E00080468946FCF7D4FC0022834600234046E2
:1042F0004946FCF78FFC002840F07E82BBF1160F88
:1043000000F26D82DDE90A013A4B03EBCB03D3E9FE
:104310000023FCF77FFC002872D00023BE1B0E9305
:10432000731E0BF1FF3B069300F16082002309939B
:10433000BBF1000F6BDA099BCDF81CB0A3EB0B03AC
:104340000993CBF100030D93229B4FF0000B092B37
:1043500066D8052B40F34A830026043B2293229B18
:10436000023B032B00F26C86DFE813F061045E046D
:104370005504380442F20F73249ACAF3130A1360E7
:104380005AEA08031AD1269B002B00F068861A4BC4
:1043900003930833269A0398136019B0BDE8F08F91
:1043A000DDE90A12C2F31303084643F07F510F9769
:1043B000A6F2FF36169F41F4401173E7269B002BAF
:1043C00040F0EF830D4B039341E700BFAFF3008054
:1043D00061436F63A787D23FB3C8608B288AC63F0B
:1043E000FB799F501344D33F0000F07F699C000885
:1043F0000000F83FA09D0008909C00088C9C0008DD
:10440000BE1B731E069300F18A840E900990069BD2
:104410005B44CDE9063B00230D93229B092B98D9E1
:10442000002322934FF0FF330126089300230C96BC
:1044300023930021089B61641293204601F0C0FA87
:104440000390002800F00486039B2364089B0E2B36
:1044500000F21481002E00F011810799002940F329
:104460006084AF4B01F00F0203EBC2030A46D3E9AD
:1044700000674FEA2118D10540F11784DDE90A01F0
:10448000A84B4FF0030AD3E90823FCF77BFACDE9E8
:10449000100108F00F08B8F1000F13D0DFF8849274
:1044A00018F0010F09D0D9E9002330463946FCF74E
:1044B0003FF906460F460AF1010A5FEA680809F16A
:1044C0000809EDD1DDE9100132463B46FCF75AFA06
:1044D000804689460E9B43B1002240464946924B96
:1044E000FCF798FB002840F035855046FCF7B6F8FD
:1044F00042464B46FCF71CF98C4B0022FBF762FF4F
:10450000A1F15073CDE910011193089B002B00F02D
:104510009780079B1493089B13930C9B002B00F030
:10452000A984139A7E4B002003EBC20353E90223B4
:104530007F49FCF727FADDE91023FBF741FFCDE9BE
:10454000100149464046FCF7A3FB0746FCF786F8F6
:1045500002460B4640464946FBF732FFDDE9102391
:10456000039E303706F8017B80468946FCF752FBF4
:10457000002840F02E85CDF854B00027DDE910ABBF
:104580001095139D13942AE00137AF4280F22E85D7
:10459000504659460022674BFCF7CAF80022654B8B
:1045A00082468B4640464946FCF7C2F8894680461B
:1045B000FCF76EFB0446FCF751F802460B464046FA
:1045C0004946FBF7FDFE303452465B4606F8014B88
:1045D00080468946FCF71EFB002840F0F8844246DE
:1045E0004B4600205049FBF7EBFE52465B46FCF77A
:1045F00011FB0028C8D0DDE91343109D039A0793EF
:1046000002E0964200F0CD84B24616F8013D392B07
:10461000F7D00133DBB23370079B01330793C8E156
:104620005046FCF71BF842464B46FCF781F83F4BDF
:104630000022FBF7C7FEA1F15073CDE910011193E1
:104640004046494600223C4BFBF7BAFEDDE91089A3
:104650004B46424606460F46FCF7FAFA81460028CA
:1046600040F0AF84DDE91001024601F1004330461D
:104670003946FCF7CFFA002840F04883179B002BFF
:10468000C0F28C80079A0E2A00F38880244B03EB3B
:10469000C203D3E900AB239B002B1BDA089B002B42
:1046A00018DC40F031830022234B50465946FCF77A
:1046B0003FF802460B46DDE90A01FCF7B5FADDF8E2
:1046C00020904E46002800F0CA82239BDDF80C8023
:1046D000DF43CCE25246DDE90A785B463846414684
:1046E000FCF750F9FCF7D4FA81460990FBF7B6FFC6
:1046F00052465B46FCF71CF8039E0B4602464146B9
:104700003846FBF75DFE09F1300306F8013B089BD4
:10471000012B00F05F83069401271C4604952AE0D4
:10472000A09D0008789D00080000F03F00001C409C
:104730000000E03F000024400000144052465B4669
:1047400040464946FCF71EF9FCF7A2FA0546FBF77E
:1047500085FF52465B46FBF7EBFF01370B460246EF
:1047600049464046FBF72CFE05F13003A74206F808
:10477000013B00F02C830022AB4BFBF7D9FF00225A
:10478000002380468946FCF73BFA0028D6D0049DDA
:10479000069C079BB246013307930AE10C9A002A54
:1047A0003DD0229A012A40F39F82089B03F1FF38F3
:1047B0000D9B4345C0F27082A3EB0808089B002BB9
:1047C000C0F24083069A1A440692099A17461A4480
:1047D00009920121204601F0C1F9064623E0012398
:1047E000BE1B0E93731E06937FF5A0ADC6F10103A9
:1047F0000993002306939BE55846FBF72FFF42469B
:104800004B46FCF7FDF900287FF478AD0BF1FF3B38
:1048100074E5864B0393039819B0BDE8F08FDDF87B
:104820003480099F0C9E002F0CDD069900290B4651
:1048300008DDB942A8BF3B46099AFF1AD21ACB1A23
:10484000099206930D9BE3B10C9B002B00F0608254
:10485000B8F1000F10DD31464246204601F05AFA09
:1048600006462A463146204601F0A6F90346294667
:1048700020461D4601F0CAF80D9BB3EB080240F03C
:10488000DB820121204601F069F9BBF1000F81466E
:1048900000F3B380229B012B40F388814FF0000A84
:1048A0000120BBF1000F40F0B480069A104410F0D4
:1048B0001F0000F09280C0F12003042B40F3D3834B
:1048C000099BC0F11C00034402440993074406926B
:1048D000099B002B05DD29461A46204601F076FA91
:1048E0000546069B002B05DD49461A46204601F089
:1048F0006DFA81460E9B002B40F03881089B002BFF
:1049000040F31E810C9B002B40F09F80079B0133DE
:1049100007930127DDF80C80DDF820A007E0294689
:1049200000230A22204601F07BF80546013749465C
:104930002846FFF7BBFB574500F1300308F8013B61
:10494000EDDB089A0027002ACCBF93464FF0010BFD
:10495000039A9344294601222046049301F036FA33
:104960004946054601F0A8FA002840F3AB811BF840
:10497000013C039A0BF1FF3B04E05A4500F0AD8186
:104980001BF8013D392B0BF1010AF6D001338BF8EE
:1049900000304946204601F039F856B12FB1B742F0
:1049A00003D03946204601F031F83146204601F067
:1049B0002DF82946204601F029F80023079A8AF8A5
:1049C0000030249B1A60269B002B3FF440AC0398D8
:1049D000C3F800A019B0BDE8F08F1C20099B074464
:1049E00003440993069B0344069371E70126B6E44A
:1049F000C0F1200008FA00F04DE401465A46204676
:104A000001F088F9229B8146012B40F3B6814FF0DB
:104A1000000AD9F8103009EB8303186901F052F845
:104A2000C0F1200041E700BF00002440689C00085E
:104A3000314600230A22204600F0F2FF129B064670
:104A4000002B40F3E982CDE90783002F00F31D819D
:104A5000BAF1000F40F0D981B046049B089903F0E9
:104A60000102039B0A921F46013B1944229B0891B5
:104A70001343099349462846FFF718FB31468346FE
:104A8000284601F019FA424649468246204601F07E
:104A900033FAC26801460BF13003002A43D1049077
:104AA0002846069301F008FA02460499204604922B
:104AB00000F0ACFF049A069B1AB90999002900F08E
:104AC0009B82BAF1000FC0F2648122994AEA010A7E
:104AD0000A9951EA0A0100F05C81002A00F3B681CC
:104AE000089A07F1010A9742D3463B7000F0B4815F
:104AF000294600230A22204600F092FF464505463B
:104B000031464FF000034FF00A02204612D000F069
:104B100087FF4146064600230A22204600F080FF18
:104B200057468046A6E72046049300F06FFF012217
:104B3000049BC6E700F074FF57460646804699E797
:104B4000229B022B7ADC0C9B002B7FF47EAF079B11
:104B50004946013328460793FFF7A8FADDF80CB061
:104B600000F1300300270BF8013BF3E649462846E5
:104B700001F0A2F90028BFF6C1AE294600230A229F
:104B8000204600F04DFF079B054603F1FF380C9BC4
:104B9000002B7FF44DAF129B002B40F3348208931F
:104BA000B7E6B04B03930333FFF7F4BBDDE9041220
:104BB00000297FF473AEC2F31303002B7FF46EAEB3
:104BC000A94B1340002B00F00082099B4FF0010A13
:104BD00001330993069B0133069361E601230C938D
:104BE000239B079A134412930133012B1F46B8BF2E
:104BF000012708930021172F61647FF71EAC012263
:104C000004235B0003F11400B842114602F10102D3
:104C1000F7D9616411E401230C93239B002B4CDD35
:104C20001F4612930893E5E700230C93D8E700236F
:104C30000C93F2E7129BCDF81C800893089B002B85
:104C40007FF443AD49460522204600F0E9FE814647
:104C50002846494601F030F900287FF736AD312368
:104C60000398079F804600F8013B013703904946AF
:104C7000204600F0CBFE7B1CDDF80CA00793CDF89E
:104C80000C80002E7FF491AE93E631463A462046E2
:104C900001F09CF80646DBE60D9BCDF83480A8EBCE
:104CA00003039B444FF0000888E5DDE90A234FF039
:104CB000020ACDE91023FFF7EEBB012323930893EB
:104CC000FFF7B7BB03D1049BD8073FF550AEDA46D8
:104CD0001BF8013D302BFAD05BE6079B039A0133AA
:104CE00007933123137054E60F9A002A00F02881AD
:104CF00003F23343069ADDF834801A440692099A87
:104D000017461A44099264E54FF000094E46DCE468
:104D1000294620460D9A00F0FDFF0546B1E50E90AC
:104D200064E500F01181DDE90A01079A4F4B564214
:104D300006F00F0203EBC203D3E90023FBF7F8FCF4
:104D400036118046894600F0708100234FF0020A38
:104D5000474FF20706D5D7E90023FBF7E9FC01230B
:104D60000AF1010A761007F10807F2D1002B3FF48F
:104D7000B1AB80468946FFF7ADBB049B002B7FF4A7
:104D800046AEDDE90412C2F31303002B3FF418AF63
:104D90003DE6002A12DD294601222046049301F057
:104DA00015F84946054601F087F80028049B40F3B2
:104DB0001781392B00F0FB800BF13103BA46079ABB
:104DC00037460132464607920AF8013BE1E509956C
:104DD000069C049D02460B46FBF7F4FA52465B46DE
:104DE00080468946FBF734FF60B952465B46404631
:104DF0004946FBF705FF00283FF4CBAC099BD907D8
:104E00007FF5C7AC039AFFF7FFBB2046716800F03F
:104E1000D7FD0746002800F00C81336906F10C012C
:104E200002339A000C30FBF751FA39460122204632
:104E300000F0CCFF804610E62946204600F06AFFCD
:104E400005461EE5DDE908239F1AC2E4392B00F070
:104E5000AE80BA460133B2E7079A3746013246467A
:104E6000079277E58C9C00080000F07FA09D000869
:104E7000789D0008DDF84CA08349DDE9102301EBA3
:104E8000CA0151E90201FBF753FCCDE91001494683
:104E90004046FBF7FDFE0646FBF7E0FB0B460246ED
:104EA00049464046FBF78CFA5346039F3036012BA8
:104EB0008046894607F8016B00F0AC80139E039B87
:104EC0001E440022714B40464946FBF731FC89469F
:104ED0008046FBF7DDFE8246FBF7C0FB02460B4631
:104EE00040464946FBF76CFA0AF1300A07F801AB75
:104EF000B74280468946E4D1DDE910010022644BC7
:104F0000FBF760FA42464B46FBF784FE002862D16D
:104F1000DDE9102300205E49FBF752FA42464B467A
:104F2000FBF796FE00283FF4A9AB16F8013CB24609
:104F3000302B06F1FF36F8D0149B0133079338E588
:104F4000169BC3F13603D5E64FF0020ADDE90A8964
:104F5000FFF7C0BA089B002B3FF462AB129B002BFB
:104F60007FF78CAB1393079B0022013B40464946D9
:104F70001493464BFBF7DCFB804689460AF101009F
:104F8000FBF76CFB42464B46FBF7D2FB414B002242
:104F9000FBF718FAA1F15073CDE910011193FFF757
:104FA000BCBA079B013307933123FFF734BB079B40
:104FB000BB4601330793392337460BF8013B46467E
:104FC000D7E44FF000094E4649E69A4668E4109D42
:104FD000139CB246B0E7149B039A0793FFF714BBE8
:104FE0007FF4ECAEDA077FF5E9AEE2E6DDF854B027
:104FF000109D139CFFF742BB392BD8D0BAF1000F9C
:105000003FF7DAAEDAE6229B022B3FF713AECDF87C
:105010001C809CE53E466FE7229B022B3FF70AAEC1
:10502000129BCDF81C8008930FE54FF0020AFFF7A2
:1050300051BA024640F2EA21174B184801F06EF9C6
:10504000002620463146666400F0BAFC039078B929
:1050500000224FF4D571104B104801F05FF9104B4E
:105060000393FFF7F4B83FF433ACC0F13C00B5E470
:10507000039B012223644FF0FF33239612930C927B
:105080000893FFF7FBBA00BFA09D00080000244072
:105090000000E03F00001C409C9C0008B09C000801
:1050A000909C000838B5084B084D5B1B9C1007D03E
:1050B000043B1D44013C55F804399847002CF9D1B4
:1050C000BDE8384004F004BA94A3000890A3000897
:1050D000F8B50C46234F064600F066FCBB685D68D9
:1050E000C4F57E6325F003050F332B4423F47F635F
:1050F00023F00F03A3F58054B4F5805F07DB002194
:10510000304601F001F8BB682B44984204D0304689
:1051100000F050FC0020F8BD3046614200F0F4FF82
:1051200001300DD0104ABB682D1B45F001055D60B4
:10513000136830461B1B136000F03CFC0120F8BDD7
:105140000021304600F0E0FFBA68831A0F2BDEDD45
:1051500043F001035360054B03491B68C01A086004
:10516000D5E700BFC0050020280C0020C80900209A
:1051700000295ED0F8B50C46064600F015FC54F840
:10518000042C784FA4F1080522F001016818D7F823
:1051900008C04368844523F0030300F08780D207EA
:1051A000436034D454F8082C07F10804AD1A1144B4
:1051B000AA68A24268D000EB030CDCF804E0D5F842
:1051C0000CC01EF0010FC2F80CC0CCF8082000F093
:1051D000918041F001036B600160B1F5007F31D235
:1051E0004A09CB08012191407A6801331143796063
:1051F00007EBC30257F83310083AC5E9021247F823
:105200003350CD603046BDE8F84000F0D3BBC21843
:105210005268D2070ED4194407F108048368A342E8
:1052200070D0C268DA60936041F001036B6069502E
:10523000D3E7704741F00103B1F5007F44F8043C27
:105240000160CDD3B1F5206F4FEA512347D28B09CE
:1052500003F1390003F13802C300F818FB5808388D
:10526000984258D05A6822F003028A4202D99B68B9
:105270009842F7D1D868C5E9023085603046DD60D4
:10528000BDE8F84000F096BBC2185268D20763D45C
:105290000B44D0E90212CA60916043F001026A60D7
:1052A0003046EB50BDE8F84000F084BB0B44D1071A
:1052B00007D454F8082CAD1A1344D5E90212CA6079
:1052C000916043F001026A60274ABD6012689A4209
:1052D00098D8264B30461968FFF7FAFE92E7142B50
:1052E0000AD9542B1FD80B0B03F16F0003F16E0288
:1052F000C300B2E7194491E703F15C0003F15B02DC
:10530000C300AAE741F00103C7E90455C5E9024417
:105310006B60695076E70121921001FA02F2796818
:105320000A437A60A7E7B3F5AA7F06D8CB0B03F14F
:10533000780003F17702C3008FE740F254529342A2
:1053400006D88B0C03F17D0003F17C02C30084E7D7
:105350004FF47E737E2280E741F001036B600160B1
:1053600050E700BFC0050020CC090020580C0020E9
:105370000048704744050020014B93F8280170470E
:1053800054040020704700BF704700BF704700BF43
:10539000704700BF2DE9F04F01F10B05162D0646B1
:1053A00083B025D8102900F2B88000F0FDFA10254E
:1053B00018224FF0020CB54F3A445368A2F108018D
:1053C0008B4200F0B7805A68D96822F003021A4471
:1053D0009C683046E1608C60516803F1080441F03C
:1053E0000101516000F0E6FA204603B0BDE8F08FFD
:1053F00035F0070500F19180A94200F28E8000F09F
:10540000D3FAB5F5FC7FC0F094816B0A00F08C8074
:10541000042B00F26A81AB0903F1390C03F1380463
:105420004FEACC00994F384443680838984206D177
:105430000CE0002980F22681DB68984206D05A6889
:1054400022F00302511B0F29F3DDA4463C69DFF86B
:1054500040E274457AD0626822F00302531B0F2B9E
:1054600000F37681002BC7E904EE80F26781B2F584
:10547000007F80F019810121D30852090B4491402B
:105480007A6857F833000A4307EBC3010839A06074
:10549000E1607A6047F83340C46001214FEAAC0311
:1054A0009940914259D8114206D12CF0030C490081
:1054B00011420CF1040CFAD007EBCC0948466446C3
:1054C000D0F80C80404508D11CE1002B80F22181EE
:1054D000D8F80C80404500F01581D8F8042022F05F
:1054E0000302531B0F2BF0DD08EB050145F001050E
:1054F000C8F804503046D8E90264F460A66043F06E
:105500000104C7E904114C60C1E902EE48F8023019
:1055100000F050FA08F1080402E00C230024336084
:10552000204603B0BDE8F08F4FF400704FF0400C00
:105530003F2477E7D3689A4208BF0CF1020C7FF44E
:1055400042AF3C69DFF848E1744584D101217A68B3
:105550004FEAAC0399409142A5D9BC68636823F037
:1055600003094D4503D8A9EB05030F2B7ADCDFF8BF
:1055700024B1494BDBF800201B6801322B4404EBBB
:10558000090A00F02F8103F580530F3323F47F685D
:1055900028F00F084146304600F0B6FD411C024697
:1055A00000F0EF80824500F2EA803C4B19684144EC
:1055B0000846196000F04981DBF8001001930131C1
:1055C0001BBFA2EB0A0A5044CBF80020186012F06F
:1055D000070B00F01181CBF108010A44CBF5805193
:1055E00090440831A1EB0801C1F30B0A5146304643
:1055F000009200F089FD421CDDE9002300F04B81A0
:10560000801A00EB0A08196848F001005144BC42B6
:10561000BA601960506000F02481B9F10F0F40F2B8
:1056200022814FF0050E6068A9F10C0C2CF0070CDC
:1056300000F0010040EA0C006060BCF10F0F04EBC9
:105640000C00C0E901EE00F22E8114465068144BA4
:105650001A688A4238BF1960124B1A688A4238BFEA
:10566000196090E0621943F0010345F0010565609F
:105670003046BA600834536000F09CF9204603B00D
:10568000BDE8F08FD9681A44A2E600BFC00500202B
:10569000C8050020C8090020580C0020280C002054
:1056A000500C0020540C0020B2F5206F4FEA52231A
:1056B0005FD3142B00F2B18003F15C01C9005B33AE
:1056C000781879580838884200F08F804B6823F0AA
:1056D0000303934202D989688842F7D1C8687A687F
:1056E000C4E902108460CC60D7E6142B59D9542B3E
:1056F00000F29B802B0B03F16F0C03F16E044FEA59
:10570000CC008FE60134A30700F108007FF4D8AE87
:1057100053E0444642445368D8F80C1043F0010368
:10572000536054F8083F3046D9608B6000F042F96E
:10573000F6E64FEAD50C05F108023CE62244536830
:10574000304643F00103536000F034F90834E7E6D3
:10575000611945F00105656043F00105C7E90411D1
:105760003046C1E902EE4D60A35000F023F9083441
:10577000D6E6930903F13901C9003833A0E7BC42EA
:105780005ED0BC68606820F003084545A8EB0503BF
:1057900002D80F2B3FF766AF304600F00BF900241C
:1057A000BEE603F15C0C03F15B044FEACC0039E682
:1057B00059F808394B4540F095801CF0030F0CF167
:1057C000FF3CF5D17B6823EA01037B6049009942E5
:1057D0003FF6C3AE11B9C0E6490004341942FBD00C
:1057E000A44669E603F11008D4E601229B109A4012
:1057F0007B681A437A6073E702EB08014942C1F300
:105800000B0A51463046009200F07EFC431CDDE955
:1058100000237FF4F5AEDA46F5E6542B26D8130BB9
:1058200003F16F01C9006E334AE7B3F5AA7F26D8AA
:10583000EB0B03F1780C03F177044FEACC00F1E5B0
:10584000294B186840441860B6E6CAF30B0CBCF14B
:10585000000F7FF4B1AEBC68C84448F0010060603E
:10586000F5E61446F3E60123536095E7B3F5AA7F06
:1058700024D8D30B03F17801C900773320E740F235
:105880005452934224D8AB0C03F17D0C03F17C04F9
:105890004FEACC00C6E5ABF1080BD8444FF0000A44
:1058A000A8EB0208AFE604F1080130460093FFF7C9
:1058B0005FFCBC68009B60681968C8E640F2545100
:1058C0008B420BD8930C03F17D01C9007C33F7E6C2
:1058D0004FF47E704FF07F0C7E24A3E54FF47E7171
:1058E0007E23EDE67B6871E7280C002082B049B189
:1058F0005AB16BB113780B601278101E18BF0120DB
:1059000002B0704701A9002AF3D1104602B07047D7
:105910006FF00100F4E700BF5FFA81FC810710D04F
:105920000346511E2AB90AE09A0718460AD00139DF
:1059300005D3184613F8012B6245F5D170470020B6
:105940007047114603290CD80029F8D003460144BA
:1059500001E08B42F3D0184613F8012B6245F8D1D1
:10596000ECE7024610B54CEA0C2444EA0444104625
:10597000036804326340A3F1013E2EEA030313F0EF
:10598000803F04D1043903291046F0D851B10346B1
:10599000014401E08B4205D0184613F8012B624503
:1059A000F8D110BD002010BD0148FFF7EFBC00BFCB
:1059B0001C0C00200148FFF7EBBC00BF1C0C0020B2
:1059C00038B5C36C05460C464BB153F8240080B182
:1059D000026843F824200023C0E9033338BD2122A4
:1059E000042100F0C1FC0346E8640028EDD100204A
:1059F00038BD0121284601FA04F56A1D920000F025
:105A0000B3FC0028F3D0C0E90145E4E731B1C36C31
:105A10004A6853F82200086043F82210704700BF1C
:105A20002DE9F0414FF0000E0E461C460D69074669
:105A300001F1140001680EF1010E8BB202FB034369
:105A4000090C4FEA134C02FB01CC9BB203EB0C4355
:105A5000754540F8043B4FEA1C44EBDC3CB1B368AD
:105A6000AB4207DD06EB850301355C6135613046ED
:105A7000BDE8F081716838460131FFF7A1FF80462B
:105A8000A8B1326906F10C01023292000C30FAF72B
:105A90001DFCFB6C726853F82210316043F82260E1
:105AA000464606EB850301355C613561DFE702465A
:105AB000B521024B024800F031FC00BF9C9C00085D
:105AC0001C9D0008020C12040346CAB91020834032
:105AD00013F07F4F04BF1B02083013F0704F04BF58
